{
  "_format": "hh-sol-artifact-1",
  "contractName": "PredictionMarket",
  "sourceName": "contracts/PredictionMarket.sol",
  "abi": [
    {
      "inputs": [],
      "stateMutability": "nonpayable",
      "type": "constructor"
    },
    {
      "anonymous": false,
      "inputs": [
        {
          "indexed": false,
          "internalType": "uint256",
          "name": "newFeeBps",
          "type": "uint256"
        }
      ],
      "name": "FeeUpdated",
      "type": "event"
    },
    {
      "anonymous": false,
      "inputs": [
        {
          "indexed": true,
          "internalType": "address",
          "name": "to",
          "type": "address"
        },
        {
          "indexed": false,
          "internalType": "uint256",
          "name": "amount",
          "type": "uint256"
        }
      ],
      "name": "FeesWithdrawn",
      "type": "event"
    },
    {
      "anonymous": false,
      "inputs": [
        {
          "indexed": true,
          "internalType": "uint256",
          "name": "marketId",
          "type": "uint256"
        },
        {
          "indexed": false,
          "internalType": "string",
          "name": "reason",
          "type": "string"
        },
        {
          "indexed": false,
          "internalType": "uint256",
          "name": "totalYesAtCancel",
          "type": "uint256"
        },
        {
          "indexed": false,
          "internalType": "uint256",
          "name": "totalNoAtCancel",
          "type": "uint256"
        },
        {
          "indexed": false,
          "internalType": "uint256",
          "name": "cancelledAt",
          "type": "uint256"
        }
      ],
      "name": "MarketCancelled",
      "type": "event"
    },
    {
      "anonymous": false,
      "inputs": [
        {
          "indexed": true,
          "internalType": "uint256",
          "name": "marketId",
          "type": "uint256"
        },
        {
          "indexed": false,
          "internalType": "string",
          "name": "question",
          "type": "string"
        },
        {
          "indexed": false,
          "internalType": "uint256",
          "name": "endTime",
          "type": "uint256"
        },
        {
          "indexed": false,
          "internalType": "uint8",
          "name": "category",
          "type": "uint8"
        }
      ],
      "name": "MarketCreated",
      "type": "event"
    },
    {
      "anonymous": false,
      "inputs": [
        {
          "indexed": true,
          "internalType": "uint256",
          "name": "marketId",
          "type": "uint256"
        },
        {
          "indexed": false,
          "internalType": "bool",
          "name": "outcome",
          "type": "bool"
        },
        {
          "indexed": false,
          "internalType": "uint256",
          "name": "totalYesAtResolve",
          "type": "uint256"
        },
        {
          "indexed": false,
          "internalType": "uint256",
          "name": "totalNoAtResolve",
          "type": "uint256"
        },
        {
          "indexed": false,
          "internalType": "uint256",
          "name": "resolvedAt",
          "type": "uint256"
        }
      ],
      "name": "MarketResolved",
      "type": "event"
    },
    {
      "anonymous": false,
      "inputs": [
        {
          "indexed": true,
          "internalType": "uint256",
          "name": "marketId",
          "type": "uint256"
        },
        {
          "indexed": true,
          "internalType": "address",
          "name": "user",
          "type": "address"
        },
        {
          "indexed": false,
          "internalType": "bool",
          "name": "side",
          "type": "bool"
        },
        {
          "indexed": false,
          "internalType": "uint256",
          "name": "amount",
          "type": "uint256"
        },
        {
          "indexed": false,
          "internalType": "uint256",
          "name": "yesOdds",
          "type": "uint256"
        },
        {
          "indexed": false,
          "internalType": "uint256",
          "name": "noOdds",
          "type": "uint256"
        },
        {
          "indexed": false,
          "internalType": "uint256",
          "name": "totalYes",
          "type": "uint256"
        },
        {
          "indexed": false,
          "internalType": "uint256",
          "name": "totalNo",
          "type": "uint256"
        }
      ],
      "name": "PositionPlaced",
      "type": "event"
    },
    {
      "anonymous": false,
      "inputs": [
        {
          "indexed": true,
          "internalType": "uint256",
          "name": "marketId",
          "type": "uint256"
        },
        {
          "indexed": true,
          "internalType": "address",
          "name": "user",
          "type": "address"
        },
        {
          "indexed": false,
          "internalType": "uint256",
          "name": "yesRefund",
          "type": "uint256"
        },
        {
          "indexed": false,
          "internalType": "uint256",
          "name": "noRefund",
          "type": "uint256"
        },
        {
          "indexed": false,
          "internalType": "uint256",
          "name": "totalRefund",
          "type": "uint256"
        }
      ],
      "name": "RefundClaimed",
      "type": "event"
    },
    {
      "anonymous": false,
      "inputs": [
        {
          "indexed": true,
          "internalType": "uint256",
          "name": "marketId",
          "type": "uint256"
        },
        {
          "indexed": true,
          "internalType": "address",
          "name": "user",
          "type": "address"
        },
        {
          "indexed": false,
          "internalType": "bool",
          "name": "side",
          "type": "bool"
        },
        {
          "indexed": false,
          "internalType": "uint256",
          "name": "amount",
          "type": "uint256"
        },
        {
          "indexed": false,
          "internalType": "uint256",
          "name": "returnValue",
          "type": "uint256"
        },
        {
          "indexed": false,
          "internalType": "uint256",
          "name": "yesOdds",
          "type": "uint256"
        },
        {
          "indexed": false,
          "internalType": "uint256",
          "name": "noOdds",
          "type": "uint256"
        },
        {
          "indexed": false,
          "internalType": "uint256",
          "name": "totalYes",
          "type": "uint256"
        },
        {
          "indexed": false,
          "internalType": "uint256",
          "name": "totalNo",
          "type": "uint256"
        }
      ],
      "name": "Sell",
      "type": "event"
    },
    {
      "anonymous": false,
      "inputs": [
        {
          "indexed": true,
          "internalType": "uint256",
          "name": "marketId",
          "type": "uint256"
        },
        {
          "indexed": true,
          "internalType": "address",
          "name": "user",
          "type": "address"
        },
        {
          "indexed": false,
          "internalType": "uint256",
          "name": "amount",
          "type": "uint256"
        }
      ],
      "name": "WinningsClaimed",
      "type": "event"
    },
    {
      "inputs": [],
      "name": "CATEGORY_COUNT",
      "outputs": [
        {
          "internalType": "uint8",
          "name": "",
          "type": "uint8"
        }
      ],
      "stateMutability": "view",
      "type": "function"
    },
    {
      "inputs": [],
      "name": "DEFAULT_FEE",
      "outputs": [
        {
          "internalType": "uint256",
          "name": "",
          "type": "uint256"
        }
      ],
      "stateMutability": "view",
      "type": "function"
    },
    {
      "inputs": [],
      "name": "FEE_DENOMINATOR",
      "outputs": [
        {
          "internalType": "uint256",
          "name": "",
          "type": "uint256"
        }
      ],
      "stateMutability": "view",
      "type": "function"
    },
    {
      "inputs": [],
      "name": "MAX_DURATION",
      "outputs": [
        {
          "internalType": "uint256",
          "name": "",
          "type": "uint256"
        }
      ],
      "stateMutability": "view",
      "type": "function"
    },
    {
      "inputs": [],
      "name": "MAX_FEE_BPS",
      "outputs": [
        {
          "internalType": "uint256",
          "name": "",
          "type": "uint256"
        }
      ],
      "stateMutability": "view",
      "type": "function"
    },
    {
      "inputs": [],
      "name": "MIN_BET",
      "outputs": [
        {
          "internalType": "uint256",
          "name": "",
          "type": "uint256"
        }
      ],
      "stateMutability": "view",
      "type": "function"
    },
    {
      "inputs": [],
      "name": "ODDS_PRECISION",
      "outputs": [
        {
          "internalType": "uint256",
          "name": "",
          "type": "uint256"
        }
      ],
      "stateMutability": "view",
      "type": "function"
    },
    {
      "inputs": [],
      "name": "RESOLUTION_WINDOW",
      "outputs": [
        {
          "internalType": "uint256",
          "name": "",
          "type": "uint256"
        }
      ],
      "stateMutability": "view",
      "type": "function"
    },
    {
      "inputs": [],
      "name": "VIRTUAL_LIQ",
      "outputs": [
        {
          "internalType": "uint256",
          "name": "",
          "type": "uint256"
        }
      ],
      "stateMutability": "view",
      "type": "function"
    },
    {
      "inputs": [],
      "name": "accruedFees",
      "outputs": [
        {
          "internalType": "uint256",
          "name": "",
          "type": "uint256"
        }
      ],
      "stateMutability": "view",
      "type": "function"
    },
    {
      "inputs": [
        {
          "internalType": "uint256",
          "name": "_marketId",
          "type": "uint256"
        },
        {
          "internalType": "string",
          "name": "_reason",
          "type": "string"
        }
      ],
      "name": "cancelMarket",
      "outputs": [],
      "stateMutability": "nonpayable",
      "type": "function"
    },
    {
      "inputs": [
        {
          "internalType": "uint256",
          "name": "",
          "type": "uint256"
        }
      ],
      "name": "cancelledAt",
      "outputs": [
        {
          "internalType": "uint256",
          "name": "",
          "type": "uint256"
        }
      ],
      "stateMutability": "view",
      "type": "function"
    },
    {
      "inputs": [
        {
          "internalType": "uint256",
          "name": "_marketId",
          "type": "uint256"
        }
      ],
      "name": "claimRefund",
      "outputs": [],
      "stateMutability": "nonpayable",
      "type": "function"
    },
    {
      "inputs": [
        {
          "internalType": "uint256",
          "name": "_marketId",
          "type": "uint256"
        }
      ],
      "name": "claimWinnings",
      "outputs": [],
      "stateMutability": "nonpayable",
      "type": "function"
    },
    {
      "inputs": [
        {
          "internalType": "uint256",
          "name": "",
          "type": "uint256"
        },
        {
          "internalType": "address",
          "name": "",
          "type": "address"
        }
      ],
      "name": "claimed",
      "outputs": [
        {
          "internalType": "bool",
          "name": "",
          "type": "bool"
        }
      ],
      "stateMutability": "view",
      "type": "function"
    },
    {
      "inputs": [
        {
          "internalType": "string",
          "name": "_question",
          "type": "string"
        },
        {
          "internalType": "uint256",
          "name": "_endTime",
          "type": "uint256"
        },
        {
          "internalType": "uint8",
          "name": "_category",
          "type": "uint8"
        }
      ],
      "name": "createMarket",
      "outputs": [],
      "stateMutability": "nonpayable",
      "type": "function"
    },
    {
      "inputs": [
        {
          "internalType": "uint256",
          "name": "_marketId",
          "type": "uint256"
        },
        {
          "internalType": "bool",
          "name": "_side",
          "type": "bool"
        },
        {
          "internalType": "uint256",
          "name": "_amount",
          "type": "uint256"
        }
      ],
      "name": "estimatePayout",
      "outputs": [
        {
          "internalType": "uint256",
          "name": "estimatedPayout",
          "type": "uint256"
        }
      ],
      "stateMutability": "view",
      "type": "function"
    },
    {
      "inputs": [],
      "name": "feeBps",
      "outputs": [
        {
          "internalType": "uint256",
          "name": "",
          "type": "uint256"
        }
      ],
      "stateMutability": "view",
      "type": "function"
    },
    {
      "inputs": [],
      "name": "getAnalytics",
      "outputs": [
        {
          "components": [
            {
              "internalType": "uint256",
              "name": "totalMarkets",
              "type": "uint256"
            },
            {
              "internalType": "uint256",
              "name": "openMarkets",
              "type": "uint256"
            },
            {
              "internalType": "uint256",
              "name": "resolvedMarkets",
              "type": "uint256"
            },
            {
              "internalType": "uint256",
              "name": "cancelledMarkets",
              "type": "uint256"
            },
            {
              "internalType": "uint256",
              "name": "totalVolume",
              "type": "uint256"
            },
            {
              "internalType": "uint256",
              "name": "openVolume",
              "type": "uint256"
            },
            {
              "internalType": "uint256",
              "name": "resolvedVolume",
              "type": "uint256"
            },
            {
              "internalType": "uint256",
              "name": "cancelledVolume",
              "type": "uint256"
            },
            {
              "internalType": "uint256",
              "name": "claimedVolume",
              "type": "uint256"
            },
            {
              "internalType": "uint256",
              "name": "refundedVolume",
              "type": "uint256"
            },
            {
              "internalType": "uint256",
              "name": "feesEarned",
              "type": "uint256"
            },
            {
              "internalType": "uint256",
              "name": "totalTrades",
              "type": "uint256"
            },
            {
              "internalType": "uint256",
              "name": "uniqueTraders",
              "type": "uint256"
            }
          ],
          "internalType": "struct PredictionMarket.AnalyticsDashboard",
          "name": "dash",
          "type": "tuple"
        }
      ],
      "stateMutability": "view",
      "type": "function"
    },
    {
      "inputs": [
        {
          "internalType": "uint256",
          "name": "_marketId",
          "type": "uint256"
        }
      ],
      "name": "getCancelledMarketInfo",
      "outputs": [
        {
          "components": [
            {
              "internalType": "uint256",
              "name": "marketId",
              "type": "uint256"
            },
            {
              "internalType": "string",
              "name": "question",
              "type": "string"
            },
            {
              "internalType": "uint256",
              "name": "cancelledAt",
              "type": "uint256"
            },
            {
              "internalType": "uint256",
              "name": "totalYesAtCancel",
              "type": "uint256"
            },
            {
              "internalType": "uint256",
              "name": "totalNoAtCancel",
              "type": "uint256"
            },
            {
              "internalType": "uint256",
              "name": "totalTradesAtCancel",
              "type": "uint256"
            },
            {
              "internalType": "string",
              "name": "reason",
              "type": "string"
            },
            {
              "internalType": "uint8",
              "name": "category",
              "type": "uint8"
            }
          ],
          "internalType": "struct PredictionMarket.CancelledMarketInfo",
          "name": "info",
          "type": "tuple"
        }
      ],
      "stateMutability": "view",
      "type": "function"
    },
    {
      "inputs": [],
      "name": "getCancelledMarkets",
      "outputs": [
        {
          "components": [
            {
              "internalType": "uint256",
              "name": "marketId",
              "type": "uint256"
            },
            {
              "internalType": "string",
              "name": "question",
              "type": "string"
            },
            {
              "internalType": "uint256",
              "name": "cancelledAt",
              "type": "uint256"
            },
            {
              "internalType": "uint256",
              "name": "totalYesAtCancel",
              "type": "uint256"
            },
            {
              "internalType": "uint256",
              "name": "totalNoAtCancel",
              "type": "uint256"
            },
            {
              "internalType": "uint256",
              "name": "totalTradesAtCancel",
              "type": "uint256"
            },
            {
              "internalType": "string",
              "name": "reason",
              "type": "string"
            },
            {
              "internalType": "uint8",
              "name": "category",
              "type": "uint8"
            }
          ],
          "internalType": "struct PredictionMarket.CancelledMarketInfo[]",
          "name": "list",
          "type": "tuple[]"
        }
      ],
      "stateMutability": "view",
      "type": "function"
    },
    {
      "inputs": [],
      "name": "getGlobalStats",
      "outputs": [
        {
          "components": [
            {
              "internalType": "uint256",
              "name": "totalMarkets",
              "type": "uint256"
            },
            {
              "internalType": "uint256",
              "name": "totalResolvedMarkets",
              "type": "uint256"
            },
            {
              "internalType": "uint256",
              "name": "totalCancelledMarkets",
              "type": "uint256"
            },
            {
              "internalType": "uint256",
              "name": "totalVolume",
              "type": "uint256"
            },
            {
              "internalType": "uint256",
              "name": "totalTrades",
              "type": "uint256"
            },
            {
              "internalType": "uint256",
              "name": "totalFeesEarned",
              "type": "uint256"
            },
            {
              "internalType": "uint256",
              "name": "cancelledVolume",
              "type": "uint256"
            },
            {
              "internalType": "uint256",
              "name": "uniqueTraders",
              "type": "uint256"
            },
            {
              "internalType": "uint256",
              "name": "claimedVolume",
              "type": "uint256"
            },
            {
              "internalType": "uint256",
              "name": "refundedVolume",
              "type": "uint256"
            }
          ],
          "internalType": "struct PredictionMarket.GlobalStats",
          "name": "",
          "type": "tuple"
        }
      ],
      "stateMutability": "view",
      "type": "function"
    },
    {
      "inputs": [
        {
          "internalType": "uint256",
          "name": "_marketId",
          "type": "uint256"
        }
      ],
      "name": "getMarketSummary",
      "outputs": [
        {
          "components": [
            {
              "internalType": "uint256",
              "name": "marketId",
              "type": "uint256"
            },
            {
              "internalType": "string",
              "name": "question",
              "type": "string"
            },
            {
              "internalType": "uint256",
              "name": "endTime",
              "type": "uint256"
            },
            {
              "internalType": "uint256",
              "name": "resolutionDeadline",
              "type": "uint256"
            },
            {
              "internalType": "uint256",
              "name": "totalYes",
              "type": "uint256"
            },
            {
              "internalType": "uint256",
              "name": "totalNo",
              "type": "uint256"
            },
            {
              "internalType": "uint256",
              "name": "totalVolume",
              "type": "uint256"
            },
            {
              "internalType": "uint256",
              "name": "totalTrades",
              "type": "uint256"
            },
            {
              "internalType": "enum PredictionMarket.MarketStatus",
              "name": "status",
              "type": "uint8"
            },
            {
              "internalType": "bool",
              "name": "outcome",
              "type": "bool"
            },
            {
              "internalType": "address",
              "name": "creator",
              "type": "address"
            },
            {
              "internalType": "uint256",
              "name": "yesOdds",
              "type": "uint256"
            },
            {
              "internalType": "uint256",
              "name": "noOdds",
              "type": "uint256"
            },
            {
              "internalType": "uint8",
              "name": "category",
              "type": "uint8"
            }
          ],
          "internalType": "struct PredictionMarket.MarketSummary",
          "name": "summary",
          "type": "tuple"
        }
      ],
      "stateMutability": "view",
      "type": "function"
    },
    {
      "inputs": [
        {
          "internalType": "uint256",
          "name": "_marketId",
          "type": "uint256"
        }
      ],
      "name": "getMarketVolume",
      "outputs": [
        {
          "internalType": "uint256",
          "name": "totalYes",
          "type": "uint256"
        },
        {
          "internalType": "uint256",
          "name": "totalNo",
          "type": "uint256"
        },
        {
          "internalType": "uint256",
          "name": "totalVolume",
          "type": "uint256"
        }
      ],
      "stateMutability": "view",
      "type": "function"
    },
    {
      "inputs": [
        {
          "internalType": "uint256",
          "name": "_offset",
          "type": "uint256"
        },
        {
          "internalType": "uint256",
          "name": "_limit",
          "type": "uint256"
        }
      ],
      "name": "getMarkets",
      "outputs": [
        {
          "components": [
            {
              "internalType": "uint256",
              "name": "marketId",
              "type": "uint256"
            },
            {
              "internalType": "string",
              "name": "question",
              "type": "string"
            },
            {
              "internalType": "uint256",
              "name": "endTime",
              "type": "uint256"
            },
            {
              "internalType": "uint256",
              "name": "resolutionDeadline",
              "type": "uint256"
            },
            {
              "internalType": "uint256",
              "name": "totalYes",
              "type": "uint256"
            },
            {
              "internalType": "uint256",
              "name": "totalNo",
              "type": "uint256"
            },
            {
              "internalType": "uint256",
              "name": "totalVolume",
              "type": "uint256"
            },
            {
              "internalType": "uint256",
              "name": "totalTrades",
              "type": "uint256"
            },
            {
              "internalType": "enum PredictionMarket.MarketStatus",
              "name": "status",
              "type": "uint8"
            },
            {
              "internalType": "bool",
              "name": "outcome",
              "type": "bool"
            },
            {
              "internalType": "address",
              "name": "creator",
              "type": "address"
            },
            {
              "internalType": "uint256",
              "name": "yesOdds",
              "type": "uint256"
            },
            {
              "internalType": "uint256",
              "name": "noOdds",
              "type": "uint256"
            },
            {
              "internalType": "uint8",
              "name": "category",
              "type": "uint8"
            }
          ],
          "internalType": "struct PredictionMarket.MarketSummary[]",
          "name": "page",
          "type": "tuple[]"
        },
        {
          "internalType": "uint256",
          "name": "total",
          "type": "uint256"
        }
      ],
      "stateMutability": "view",
      "type": "function"
    },
    {
      "inputs": [
        {
          "internalType": "enum PredictionMarket.MarketStatus",
          "name": "_status",
          "type": "uint8"
        }
      ],
      "name": "getMarketsByStatus",
      "outputs": [
        {
          "components": [
            {
              "internalType": "uint256",
              "name": "marketId",
              "type": "uint256"
            },
            {
              "internalType": "string",
              "name": "question",
              "type": "string"
            },
            {
              "internalType": "uint256",
              "name": "endTime",
              "type": "uint256"
            },
            {
              "internalType": "uint256",
              "name": "resolutionDeadline",
              "type": "uint256"
            },
            {
              "internalType": "uint256",
              "name": "totalYes",
              "type": "uint256"
            },
            {
              "internalType": "uint256",
              "name": "totalNo",
              "type": "uint256"
            },
            {
              "internalType": "uint256",
              "name": "totalVolume",
              "type": "uint256"
            },
            {
              "internalType": "uint256",
              "name": "totalTrades",
              "type": "uint256"
            },
            {
              "internalType": "enum PredictionMarket.MarketStatus",
              "name": "status",
              "type": "uint8"
            },
            {
              "internalType": "bool",
              "name": "outcome",
              "type": "bool"
            },
            {
              "internalType": "address",
              "name": "creator",
              "type": "address"
            },
            {
              "internalType": "uint256",
              "name": "yesOdds",
              "type": "uint256"
            },
            {
              "internalType": "uint256",
              "name": "noOdds",
              "type": "uint256"
            },
            {
              "internalType": "uint8",
              "name": "category",
              "type": "uint8"
            }
          ],
          "internalType": "struct PredictionMarket.MarketSummary[]",
          "name": "result",
          "type": "tuple[]"
        }
      ],
      "stateMutability": "view",
      "type": "function"
    },
    {
      "inputs": [
        {
          "internalType": "uint256",
          "name": "_marketId",
          "type": "uint256"
        }
      ],
      "name": "getOdds",
      "outputs": [
        {
          "internalType": "uint256",
          "name": "yesOdds",
          "type": "uint256"
        },
        {
          "internalType": "uint256",
          "name": "noOdds",
          "type": "uint256"
        }
      ],
      "stateMutability": "view",
      "type": "function"
    },
    {
      "inputs": [
        {
          "internalType": "uint256",
          "name": "_marketId",
          "type": "uint256"
        },
        {
          "internalType": "address",
          "name": "_user",
          "type": "address"
        }
      ],
      "name": "getRefundAmount",
      "outputs": [
        {
          "internalType": "uint256",
          "name": "yesRefund",
          "type": "uint256"
        },
        {
          "internalType": "uint256",
          "name": "noRefund",
          "type": "uint256"
        },
        {
          "internalType": "uint256",
          "name": "total",
          "type": "uint256"
        },
        {
          "internalType": "bool",
          "name": "alreadyClaimed",
          "type": "bool"
        }
      ],
      "stateMutability": "view",
      "type": "function"
    },
    {
      "inputs": [],
      "name": "getResolvedMarkets",
      "outputs": [
        {
          "components": [
            {
              "internalType": "uint256",
              "name": "marketId",
              "type": "uint256"
            },
            {
              "internalType": "string",
              "name": "question",
              "type": "string"
            },
            {
              "internalType": "uint256",
              "name": "endTime",
              "type": "uint256"
            },
            {
              "internalType": "uint256",
              "name": "resolutionDeadline",
              "type": "uint256"
            },
            {
              "internalType": "uint256",
              "name": "totalYes",
              "type": "uint256"
            },
            {
              "internalType": "uint256",
              "name": "totalNo",
              "type": "uint256"
            },
            {
              "internalType": "uint256",
              "name": "totalVolume",
              "type": "uint256"
            },
            {
              "internalType": "uint256",
              "name": "totalTrades",
              "type": "uint256"
            },
            {
              "internalType": "enum PredictionMarket.MarketStatus",
              "name": "status",
              "type": "uint8"
            },
            {
              "internalType": "bool",
              "name": "outcome",
              "type": "bool"
            },
            {
              "internalType": "address",
              "name": "creator",
              "type": "address"
            },
            {
              "internalType": "uint256",
              "name": "yesOdds",
              "type": "uint256"
            },
            {
              "internalType": "uint256",
              "name": "noOdds",
              "type": "uint256"
            },
            {
              "internalType": "uint8",
              "name": "category",
              "type": "uint8"
            }
          ],
          "internalType": "struct PredictionMarket.MarketSummary[]",
          "name": "list",
          "type": "tuple[]"
        }
      ],
      "stateMutability": "view",
      "type": "function"
    },
    {
      "inputs": [
        {
          "internalType": "uint256",
          "name": "_marketId",
          "type": "uint256"
        },
        {
          "internalType": "bool",
          "name": "_side",
          "type": "bool"
        },
        {
          "internalType": "uint256",
          "name": "_amount",
          "type": "uint256"
        }
      ],
      "name": "getSellQuote",
      "outputs": [
        {
          "internalType": "uint256",
          "name": "grossReturn",
          "type": "uint256"
        },
        {
          "internalType": "uint256",
          "name": "fee",
          "type": "uint256"
        },
        {
          "internalType": "uint256",
          "name": "netReturn",
          "type": "uint256"
        },
        {
          "internalType": "uint256",
          "name": "pricePerShare",
          "type": "uint256"
        }
      ],
      "stateMutability": "view",
      "type": "function"
    },
    {
      "inputs": [
        {
          "internalType": "uint256",
          "name": "_n",
          "type": "uint256"
        }
      ],
      "name": "getTopMarketsByTrades",
      "outputs": [
        {
          "components": [
            {
              "internalType": "uint256",
              "name": "marketId",
              "type": "uint256"
            },
            {
              "internalType": "string",
              "name": "question",
              "type": "string"
            },
            {
              "internalType": "uint256",
              "name": "endTime",
              "type": "uint256"
            },
            {
              "internalType": "uint256",
              "name": "resolutionDeadline",
              "type": "uint256"
            },
            {
              "internalType": "uint256",
              "name": "totalYes",
              "type": "uint256"
            },
            {
              "internalType": "uint256",
              "name": "totalNo",
              "type": "uint256"
            },
            {
              "internalType": "uint256",
              "name": "totalVolume",
              "type": "uint256"
            },
            {
              "internalType": "uint256",
              "name": "totalTrades",
              "type": "uint256"
            },
            {
              "internalType": "enum PredictionMarket.MarketStatus",
              "name": "status",
              "type": "uint8"
            },
            {
              "internalType": "bool",
              "name": "outcome",
              "type": "bool"
            },
            {
              "internalType": "address",
              "name": "creator",
              "type": "address"
            },
            {
              "internalType": "uint256",
              "name": "yesOdds",
              "type": "uint256"
            },
            {
              "internalType": "uint256",
              "name": "noOdds",
              "type": "uint256"
            },
            {
              "internalType": "uint8",
              "name": "category",
              "type": "uint8"
            }
          ],
          "internalType": "struct PredictionMarket.MarketSummary[]",
          "name": "top",
          "type": "tuple[]"
        }
      ],
      "stateMutability": "view",
      "type": "function"
    },
    {
      "inputs": [
        {
          "internalType": "uint256",
          "name": "_n",
          "type": "uint256"
        }
      ],
      "name": "getTopMarketsByVolume",
      "outputs": [
        {
          "components": [
            {
              "internalType": "uint256",
              "name": "marketId",
              "type": "uint256"
            },
            {
              "internalType": "string",
              "name": "question",
              "type": "string"
            },
            {
              "internalType": "uint256",
              "name": "endTime",
              "type": "uint256"
            },
            {
              "internalType": "uint256",
              "name": "resolutionDeadline",
              "type": "uint256"
            },
            {
              "internalType": "uint256",
              "name": "totalYes",
              "type": "uint256"
            },
            {
              "internalType": "uint256",
              "name": "totalNo",
              "type": "uint256"
            },
            {
              "internalType": "uint256",
              "name": "totalVolume",
              "type": "uint256"
            },
            {
              "internalType": "uint256",
              "name": "totalTrades",
              "type": "uint256"
            },
            {
              "internalType": "enum PredictionMarket.MarketStatus",
              "name": "status",
              "type": "uint8"
            },
            {
              "internalType": "bool",
              "name": "outcome",
              "type": "bool"
            },
            {
              "internalType": "address",
              "name": "creator",
              "type": "address"
            },
            {
              "internalType": "uint256",
              "name": "yesOdds",
              "type": "uint256"
            },
            {
              "internalType": "uint256",
              "name": "noOdds",
              "type": "uint256"
            },
            {
              "internalType": "uint8",
              "name": "category",
              "type": "uint8"
            }
          ],
          "internalType": "struct PredictionMarket.MarketSummary[]",
          "name": "top",
          "type": "tuple[]"
        }
      ],
      "stateMutability": "view",
      "type": "function"
    },
    {
      "inputs": [],
      "name": "getTotalVolume",
      "outputs": [
        {
          "internalType": "uint256",
          "name": "",
          "type": "uint256"
        }
      ],
      "stateMutability": "view",
      "type": "function"
    },
    {
      "inputs": [
        {
          "internalType": "address",
          "name": "_user",
          "type": "address"
        }
      ],
      "name": "getUserAllClaimInfo",
      "outputs": [
        {
          "components": [
            {
              "internalType": "uint256",
              "name": "marketId",
              "type": "uint256"
            },
            {
              "internalType": "string",
              "name": "question",
              "type": "string"
            },
            {
              "internalType": "bool",
              "name": "outcome",
              "type": "bool"
            },
            {
              "internalType": "uint256",
              "name": "userYesBet",
              "type": "uint256"
            },
            {
              "internalType": "uint256",
              "name": "userNoBet",
              "type": "uint256"
            },
            {
              "internalType": "uint256",
              "name": "userWinningBet",
              "type": "uint256"
            },
            {
              "internalType": "uint256",
              "name": "estimatedPayout",
              "type": "uint256"
            },
            {
              "internalType": "bool",
              "name": "hasClaimed",
              "type": "bool"
            },
            {
              "internalType": "bool",
              "name": "isEligible",
              "type": "bool"
            },
            {
              "internalType": "uint256",
              "name": "resolvedAt",
              "type": "uint256"
            },
            {
              "internalType": "enum PredictionMarket.MarketStatus",
              "name": "status",
              "type": "uint8"
            },
            {
              "internalType": "uint8",
              "name": "category",
              "type": "uint8"
            }
          ],
          "internalType": "struct PredictionMarket.UserClaimInfo[]",
          "name": "claims",
          "type": "tuple[]"
        }
      ],
      "stateMutability": "view",
      "type": "function"
    },
    {
      "inputs": [
        {
          "internalType": "uint256",
          "name": "_marketId",
          "type": "uint256"
        },
        {
          "internalType": "address",
          "name": "_user",
          "type": "address"
        }
      ],
      "name": "getUserClaimInfo",
      "outputs": [
        {
          "components": [
            {
              "internalType": "uint256",
              "name": "marketId",
              "type": "uint256"
            },
            {
              "internalType": "string",
              "name": "question",
              "type": "string"
            },
            {
              "internalType": "bool",
              "name": "outcome",
              "type": "bool"
            },
            {
              "internalType": "uint256",
              "name": "userYesBet",
              "type": "uint256"
            },
            {
              "internalType": "uint256",
              "name": "userNoBet",
              "type": "uint256"
            },
            {
              "internalType": "uint256",
              "name": "userWinningBet",
              "type": "uint256"
            },
            {
              "internalType": "uint256",
              "name": "estimatedPayout",
              "type": "uint256"
            },
            {
              "internalType": "bool",
              "name": "hasClaimed",
              "type": "bool"
            },
            {
              "internalType": "bool",
              "name": "isEligible",
              "type": "bool"
            },
            {
              "internalType": "uint256",
              "name": "resolvedAt",
              "type": "uint256"
            },
            {
              "internalType": "enum PredictionMarket.MarketStatus",
              "name": "status",
              "type": "uint8"
            },
            {
              "internalType": "uint8",
              "name": "category",
              "type": "uint8"
            }
          ],
          "internalType": "struct PredictionMarket.UserClaimInfo",
          "name": "info",
          "type": "tuple"
        }
      ],
      "stateMutability": "view",
      "type": "function"
    },
    {
      "inputs": [
        {
          "internalType": "address",
          "name": "_user",
          "type": "address"
        }
      ],
      "name": "getUserMarketIds",
      "outputs": [
        {
          "internalType": "uint256[]",
          "name": "",
          "type": "uint256[]"
        }
      ],
      "stateMutability": "view",
      "type": "function"
    },
    {
      "inputs": [
        {
          "internalType": "address",
          "name": "_user",
          "type": "address"
        }
      ],
      "name": "getUserPendingRefunds",
      "outputs": [
        {
          "components": [
            {
              "internalType": "uint256",
              "name": "marketId",
              "type": "uint256"
            },
            {
              "internalType": "string",
              "name": "question",
              "type": "string"
            },
            {
              "internalType": "string",
              "name": "reason",
              "type": "string"
            },
            {
              "internalType": "uint256",
              "name": "cancelledAt",
              "type": "uint256"
            },
            {
              "internalType": "uint256",
              "name": "yesRefund",
              "type": "uint256"
            },
            {
              "internalType": "uint256",
              "name": "noRefund",
              "type": "uint256"
            },
            {
              "internalType": "uint256",
              "name": "total",
              "type": "uint256"
            },
            {
              "internalType": "uint8",
              "name": "category",
              "type": "uint8"
            }
          ],
          "internalType": "struct PredictionMarket.PendingRefund[]",
          "name": "refunds",
          "type": "tuple[]"
        }
      ],
      "stateMutability": "view",
      "type": "function"
    },
    {
      "inputs": [
        {
          "internalType": "address",
          "name": "_user",
          "type": "address"
        }
      ],
      "name": "getUserPositions",
      "outputs": [
        {
          "components": [
            {
              "internalType": "uint256",
              "name": "marketId",
              "type": "uint256"
            },
            {
              "internalType": "uint256",
              "name": "yesAmount",
              "type": "uint256"
            },
            {
              "internalType": "uint256",
              "name": "noAmount",
              "type": "uint256"
            },
            {
              "internalType": "bool",
              "name": "claimed",
              "type": "bool"
            }
          ],
          "internalType": "struct PredictionMarket.UserPosition[]",
          "name": "positions",
          "type": "tuple[]"
        }
      ],
      "stateMutability": "view",
      "type": "function"
    },
    {
      "inputs": [
        {
          "internalType": "address",
          "name": "_user",
          "type": "address"
        }
      ],
      "name": "getUserStats",
      "outputs": [
        {
          "internalType": "uint256",
          "name": "totalBetVolume",
          "type": "uint256"
        },
        {
          "internalType": "uint256",
          "name": "marketsEntered",
          "type": "uint256"
        },
        {
          "internalType": "uint256",
          "name": "winningsClaimed_",
          "type": "uint256"
        },
        {
          "internalType": "uint256",
          "name": "unclaimedWinnings",
          "type": "uint256"
        },
        {
          "internalType": "uint256",
          "name": "pendingRefunds",
          "type": "uint256"
        }
      ],
      "stateMutability": "view",
      "type": "function"
    },
    {
      "inputs": [],
      "name": "getVolumeStats",
      "outputs": [
        {
          "internalType": "uint256",
          "name": "totalVolume",
          "type": "uint256"
        },
        {
          "internalType": "uint256",
          "name": "totalTrades",
          "type": "uint256"
        },
        {
          "internalType": "uint256",
          "name": "totalFeesEarned",
          "type": "uint256"
        },
        {
          "internalType": "uint256",
          "name": "openVolume",
          "type": "uint256"
        },
        {
          "internalType": "uint256",
          "name": "openMarkets",
          "type": "uint256"
        }
      ],
      "stateMutability": "view",
      "type": "function"
    },
    {
      "inputs": [],
      "name": "globalCancelledCount",
      "outputs": [
        {
          "internalType": "uint256",
          "name": "",
          "type": "uint256"
        }
      ],
      "stateMutability": "view",
      "type": "function"
    },
    {
      "inputs": [],
      "name": "globalCancelledVolume",
      "outputs": [
        {
          "internalType": "uint256",
          "name": "",
          "type": "uint256"
        }
      ],
      "stateMutability": "view",
      "type": "function"
    },
    {
      "inputs": [],
      "name": "globalClaimedVolume",
      "outputs": [
        {
          "internalType": "uint256",
          "name": "",
          "type": "uint256"
        }
      ],
      "stateMutability": "view",
      "type": "function"
    },
    {
      "inputs": [],
      "name": "globalRefundedVolume",
      "outputs": [
        {
          "internalType": "uint256",
          "name": "",
          "type": "uint256"
        }
      ],
      "stateMutability": "view",
      "type": "function"
    },
    {
      "inputs": [],
      "name": "globalResolvedCount",
      "outputs": [
        {
          "internalType": "uint256",
          "name": "",
          "type": "uint256"
        }
      ],
      "stateMutability": "view",
      "type": "function"
    },
    {
      "inputs": [],
      "name": "globalTotalFeesEarned",
      "outputs": [
        {
          "internalType": "uint256",
          "name": "",
          "type": "uint256"
        }
      ],
      "stateMutability": "view",
      "type": "function"
    },
    {
      "inputs": [],
      "name": "globalTotalTrades",
      "outputs": [
        {
          "internalType": "uint256",
          "name": "",
          "type": "uint256"
        }
      ],
      "stateMutability": "view",
      "type": "function"
    },
    {
      "inputs": [],
      "name": "globalTotalVolume",
      "outputs": [
        {
          "internalType": "uint256",
          "name": "",
          "type": "uint256"
        }
      ],
      "stateMutability": "view",
      "type": "function"
    },
    {
      "inputs": [],
      "name": "globalUniqueTraders",
      "outputs": [
        {
          "internalType": "uint256",
          "name": "",
          "type": "uint256"
        }
      ],
      "stateMutability": "view",
      "type": "function"
    },
    {
      "inputs": [
        {
          "internalType": "uint256",
          "name": "_marketId",
          "type": "uint256"
        },
        {
          "internalType": "address",
          "name": "_user",
          "type": "address"
        }
      ],
      "name": "hasUserBet",
      "outputs": [
        {
          "internalType": "bool",
          "name": "",
          "type": "bool"
        }
      ],
      "stateMutability": "view",
      "type": "function"
    },
    {
      "inputs": [
        {
          "internalType": "uint256",
          "name": "",
          "type": "uint256"
        }
      ],
      "name": "isCancelled",
      "outputs": [
        {
          "internalType": "bool",
          "name": "",
          "type": "bool"
        }
      ],
      "stateMutability": "view",
      "type": "function"
    },
    {
      "inputs": [],
      "name": "marketCount",
      "outputs": [
        {
          "internalType": "uint256",
          "name": "",
          "type": "uint256"
        }
      ],
      "stateMutability": "view",
      "type": "function"
    },
    {
      "inputs": [
        {
          "internalType": "uint256",
          "name": "",
          "type": "uint256"
        }
      ],
      "name": "markets",
      "outputs": [
        {
          "internalType": "string",
          "name": "question",
          "type": "string"
        },
        {
          "internalType": "uint256",
          "name": "endTime",
          "type": "uint256"
        },
        {
          "internalType": "uint256",
          "name": "resolutionDeadline",
          "type": "uint256"
        },
        {
          "internalType": "uint256",
          "name": "totalYes",
          "type": "uint256"
        },
        {
          "internalType": "uint256",
          "name": "totalNo",
          "type": "uint256"
        },
        {
          "internalType": "uint256",
          "name": "totalTrades",
          "type": "uint256"
        },
        {
          "internalType": "enum PredictionMarket.MarketStatus",
          "name": "status",
          "type": "uint8"
        },
        {
          "internalType": "bool",
          "name": "outcome",
          "type": "bool"
        },
        {
          "internalType": "address",
          "name": "creator",
          "type": "address"
        },
        {
          "internalType": "uint8",
          "name": "category",
          "type": "uint8"
        }
      ],
      "stateMutability": "view",
      "type": "function"
    },
    {
      "inputs": [
        {
          "internalType": "uint256",
          "name": "",
          "type": "uint256"
        },
        {
          "internalType": "address",
          "name": "",
          "type": "address"
        }
      ],
      "name": "noBets",
      "outputs": [
        {
          "internalType": "uint256",
          "name": "",
          "type": "uint256"
        }
      ],
      "stateMutability": "view",
      "type": "function"
    },
    {
      "inputs": [],
      "name": "owner",
      "outputs": [
        {
          "internalType": "address",
          "name": "",
          "type": "address"
        }
      ],
      "stateMutability": "view",
      "type": "function"
    },
    {
      "inputs": [
        {
          "internalType": "uint256",
          "name": "_marketId",
          "type": "uint256"
        },
        {
          "internalType": "bool",
          "name": "_side",
          "type": "bool"
        }
      ],
      "name": "placePosition",
      "outputs": [],
      "stateMutability": "payable",
      "type": "function"
    },
    {
      "inputs": [
        {
          "internalType": "uint256",
          "name": "_marketId",
          "type": "uint256"
        },
        {
          "internalType": "bool",
          "name": "_outcome",
          "type": "bool"
        }
      ],
      "name": "resolveMarket",
      "outputs": [],
      "stateMutability": "nonpayable",
      "type": "function"
    },
    {
      "inputs": [
        {
          "internalType": "uint256",
          "name": "",
          "type": "uint256"
        }
      ],
      "name": "resolvedAt",
      "outputs": [
        {
          "internalType": "uint256",
          "name": "",
          "type": "uint256"
        }
      ],
      "stateMutability": "view",
      "type": "function"
    },
    {
      "inputs": [
        {
          "internalType": "uint256",
          "name": "_marketId",
          "type": "uint256"
        },
        {
          "internalType": "bool",
          "name": "_side",
          "type": "bool"
        },
        {
          "internalType": "uint256",
          "name": "_amount",
          "type": "uint256"
        }
      ],
      "name": "sellPosition",
      "outputs": [],
      "stateMutability": "nonpayable",
      "type": "function"
    },
    {
      "inputs": [
        {
          "internalType": "uint256",
          "name": "_feeBps",
          "type": "uint256"
        }
      ],
      "name": "setFee",
      "outputs": [],
      "stateMutability": "nonpayable",
      "type": "function"
    },
    {
      "inputs": [
        {
          "internalType": "address",
          "name": "_to",
          "type": "address"
        }
      ],
      "name": "withdrawFees",
      "outputs": [],
      "stateMutability": "nonpayable",
      "type": "function"
    },
    {
      "inputs": [
        {
          "internalType": "uint256",
          "name": "",
          "type": "uint256"
        },
        {
          "internalType": "address",
          "name": "",
          "type": "address"
        }
      ],
      "name": "yesBets",
      "outputs": [
        {
          "internalType": "uint256",
          "name": "",
          "type": "uint256"
        }
      ],
      "stateMutability": "view",
      "type": "function"
    },
    {
      "stateMutability": "payable",
      "type": "receive"
    }
  ],
  "bytecode": "0x60a0806040523461004b57336080526019600055614dc99081610051823960805181818161182101528181611bda01528181612331015281816127f101528181612d2101526139760152f35b600080fdfe6080806040526004361015610054575b50361561001b57600080fd5b60405162461bcd60e51b81526020600482015260116024820152702ab9b290383630b1b2a837b9b4ba34b7b760791b6044820152606490fd5b60003560e01c908163059cf04314613f8c575080630b9d98e9146103ce5780630ccb2ec814613d71578063120aa87714613d24578063126c416614613caa578063128e698814613c8c578063143f2a8814613aca578063155e4b8214613a82578063164e68de146139575780631659f9f3146137c1578063188212b5146137a357806319ce7588146133e457806324a9d853146133c65780632a6bc2dd14613204578063354c6199146131bc578063456051f114612ce757806345cfeb7c14612cbb5780634b8764a514612bd85780634e43603a146129ed5780634fcc1def146129d157806357bde446146127cf5780635b7baf64146126595780636540742f14612637578063677bd9ff146123fc578063682c2058146123de57806369fe0e2d146123175780636b4169c31461220b5780636bc98ba3146121ee578063732eb0f0146121d0578063734c8544146121b25780637a115695146120f45780637b340a6414611dfe57806380968d4814611dbe57806383aca3ec14611c745780638443b23314611c2757806387412a6014611c095780638da5cb5b14611bc4578063921e3f18146117d8578063947f45fb1461177f5780639c90d93314611761578063a5abcb5914611743578063a95f028a14611688578063a95f73fd1461165c578063aca011741461157d578063aeaa5a0d1461127a578063b1283e77146111b9578063b1724b461461119a578063bbc1b7fe1461117c578063c14d6d9714611047578063c31f1b9f14611024578063c625708814611006578063c7334bb314610fea578063cdf92c2714610fb9578063d4ce3e9814610c2a578063d55be8c614610c0d578063d62ab79a14610887578063d73792a914610869578063dd4e01301461067b578063df5a060d1461040a578063ec979082146103ec578063f02a2a4a146103ce5763f53bba091461030b573861000f565b346103c95760403660031901126103c9576080600435610329614059565b81600052600760205261034360ff6040600020541661481d565b60008281526004602090815260408083206001600160a01b03851680855290835281842054868552600584528285209185529252909120549092909161038983856144ee565b91600052600660205260406000209060018060a01b031660005260205260ff60406000205416916040519384526020840152604083015215156060820152f35b600080fd5b346103c95760003660031901126103c9576020601454604051908152f35b346103c95760003660031901126103c9576020600254604051908152f35b346103c95760403660031901126103c957600435610426614059565b61042e614ba2565b508115158061066f575b610441906144fb565b81600052600760205261045c60ff604060002054161561453f565b81600052600360205260406000209060068201549160ff831691600383101561065957600183036106145760008581526004602090815260408083206001600160a01b0385168085529083528184205489855260058452828520918552925290912054600886901c60ff169190821561060e5781905b8315610603576003860154925b84156105f8576004870154955b60009484151597886105c2575b50508a600052600660205260406000209060018060a01b031660005260205260ff6040600020541694866105b9575b8a6000526009602052604060002054976040519b6105458d614360565b8c526105509061439d565b60208c0152151560408b015260608a0152608089015260a088015260c0870152151560e08601521515610100850152610120840152610593906101408401614651565b60b01c60ff16610160820152604051809160208252602082016105b591614441565b0390f35b85159650610528565b91955090806105d7575050825b938b806104f9565b6105f3916105e86105ed92876147c9565b6147fd565b846144ee565b6105cf565b6003870154956104ec565b6004860154926104df565b806104d2565b60405162461bcd60e51b815260206004820152601760248201527f4d61726b6574206e6f74207265736f6c766564207965740000000000000000006044820152606490fd5b634e487b7160e01b600052602160045260246000fd5b50600254821115610438565b346103c95760203660031901126103c957600435600254808211610861575b6106a382614601565b90600092600060015b838111156106ca57604051602080825281906105b590820188614177565b80600052600760205260ff604060002054166107e4578060005260036020528086604060002060ff60038201549160048101549261070884826144ee565b936107138183614bfc565b92909160018501549160028601546005870154936107446006890154986040519d8e61073e816142f1565b5261439d565b60208d015260408c015260608b015260808a015260a08901528560c089015260e08801526107788484166101008901614651565b600883901c84161515610120880152601083901c6001600160a01b031661014088015261016087015261018086015260b01c166101a0840152858411610822575050600019820182811161080c576107db916107d48289614680565b5286614680565b508281146107f2575b6107ed906144df565b6106ac565b9450506107ed6108028285614d39565b91909590506107e4565b634e487b7160e01b600052601160045260246000fd5b11610832575b506107ed906144df565b8291965061084361084a9387614680565b5284614680565b506107ed6108588285614d39565b91909590610828565b90508061069a565b346103c95760003660031901126103c9576020604051620186a08152f35b346103c95761089536614278565b6001601d939293546108aa60ff8216156146d9565b60ff191617601d5581151580610c01575b6108c4906144fb565b8160005260076020526108df60ff604060002054161561453f565b816000526003602052604060002060ff6006820154166003811015610659576109089015614b20565b61091760018201544210614b5e565b66038d7ea4c680008210610bc7578315610b615760008381526004602090815260408083203384529091529020548211610b1c575b600381018054906004830192610982845461271061097b61096d8388614bfc565b8c15610b1557505b896147c9565b04946144ee565b8311610ad0576005906109c16109a9620186a06109a1600054886147c9565b048096614694565b946109b6816001546144ee565b6001556016546144ee565b6016558715610a9857866000526004602052604060002060018060a01b03331660005260205260406000206109f7878254614694565b9055610a04868454614694565b83555b01610a1281546144df565b9055610a1f6015546144df565b601555610a2f8154845490614bfc565b929091610a3c8233614cb5565b549354946040519715158852602088015260408701526060860152608085015260a084015260c08301527f0975b221e13d392e54857b612749eb7df4351e5d4b0fdf4ab22d5649b7ac024160e03393a3601d805460ff19169055005b60008781526020838152604080832033845290915290208054610abc908890614694565b9055610ac9868654614694565b8555610a07565b60405162461bcd60e51b815260206004820152601b60248201527f496e73756666696369656e7420706f6f6c206c697175696469747900000000006044820152606490fd5b9050610975565b60405162461bcd60e51b815260206004820152601960248201527f496e73756666696369656e742059455320706f736974696f6e000000000000006044820152606490fd5b600083815260056020908152604080832033845290915290205482111561094c5760405162461bcd60e51b815260206004820152601860248201527f496e73756666696369656e74204e4f20706f736974696f6e00000000000000006044820152606490fd5b60405162461bcd60e51b815260206004820152601260248201527110995b1bddc81b5a5b9a5b5d5b481cd95b1b60721b6044820152606490fd5b506002548211156108bb565b346103c95760003660031901126103c95760206040516109c48152f35b346103c95760203660031901126103c957610c43614043565b6001600160a01b0381166000908152601260205260408120805491929190835b828110610f3e5750610c7484614582565b93610c82604051958661437c565b808552610c91601f1991614582565b0160005b818110610f215750506001600160a01b0390921691600090815b838110610d1e57856040518091602082016020835281518091526040830190602060408260051b8601019301916000905b828210610cef57505050500390f35b91936001919395506020610d0e8192603f198a82030186528851614441565b9601920192018594939192610ce0565b610d288183614755565b90549060031b1c9283600052600760205260ff60406000205416610f1757836000526003602052604060002093600685015490600360ff8316101561065957600160ff831603610f0b578060005260046020526040806000206000908a825260205220548160005260056020526040806000206000908b8252602052205460ff8460081c169081600014610f0557825b8215610efa5760038a0154915b8315610eef5760048b0154945b8d6000948415159788610eb7575b5050604060ff918960005260066020528160002060009182526020522054169486610eae575b876000526009602052604060002054976040519d8e91610e2583614360565b8252610e309061439d565b602090910152151560408d015260608c015260808b015260a08a015260c0890152151560e08801521515610100870152610120860152610e7760ff82166101408701614651565b60b01c60ff1661016085015280610e8d906144df565b93610e988289614680565b52610ea39087614680565b506001905b01610caf565b85159650610e06565b9195509080610ecf57505060ff6040845b9591610de0565b610eea610ee460ff936105e8604094896147c9565b866144ee565b610ec8565b60038b015494610dd2565b60048a015491610dc5565b80610db8565b50509250600190610ea8565b9250600190610ea8565b602090610f2f959495614ba2565b82828901015201939293610c95565b610f4b8183959495614755565b90549060031b1c80600052600760205260ff60406000205416159081610f91575b50610f7d575b600101929192610c63565b93610f896001916144df565b949050610f72565b9050600052600360205260ff6006604060002001541660038110156106595760011486610f6c565b346103c95760203660031901126103c9576004356000526007602052602060ff604060002054166040519015158152f35b346103c95760003660031901126103c957602060405160068152f35b346103c95760003660031901126103c9576020601954604051908152f35b346103c95760003660031901126103c9576020604051670de0b6b3a76400008152f35b346103c95760203660031901126103c9576105b56110ec60ff60043561106b614599565b5080151580611170575b61107e906144fb565b80600052600760205261109882604060002054161561453f565b806000526003602052604060002060038101546004820154916110bb83836144ee565b6110c58484614bfc565b94909360018401546002850154906110f360058701549660068101549a6040519d8e6142f1565b8d5261439d565b60208c015260408b015260608a0152608089015260a088015260c087015260e08601526111268484166101008701614651565b838360081c16151561012086015260018060a01b038360101c1661014086015261016085015261018084015260b01c166101a08201526040519182916020835260208301906140bd565b50600254811115611075565b346103c95760003660031901126103c9576020601a54604051908152f35b346103c95760003660031901126103c95760206040516301e133808152f35b346103c95760203660031901126103c957600435600052600360205261122160406000206111e68161439d565b9060ff600182015491600281015490600381015460048201549060066005840154930154936040519889986101408a526101408a019061406f565b96602089015260408801526060870152608086015260a085015261124a60c085018383166140b0565b600881901c8216151560e0850152601081901c6001600160a01b031661010085015260b01c166101208301520390f35b60403660031901126103c957600435611291614269565b906001601d546112a460ff8216156146d9565b60ff191617601d5580151580611571575b6112be906144fb565b8060005260076020526112d960ff604060002054161561453f565b806000526003602052604060002060ff6006820154166003811015610659576113029015614b20565b61131160018201544210614b5e565b66038d7ea4c68000341061153857620186a061132f600054346147c9565b049061134b61133e8334614694565b926109b6816001546144ee565b60165583156114f357826000526004602052604060002060018060a01b03331660005260205260406000206113818382546144ee565b9055600381016113928382546144ee565b90555b600581016113a381546144df565b90556113b1826014546144ee565b6014556113bf6015546144df565b601555600083815260136020908152604080832033845290915290205460ff161561144e575b60046003820154910154916113fa8383614bfc565b916040519615158752602087015260408601526060850152608084015260a08301527f39030e804a1c2a4713d5e4cfee4b24625c6ccea154822bcce5e09c6798f4086360c03393a3601d805460ff19169055005b60008381526013602090815260408083203384528252808320805460ff19166001179055601290915290208054600160401b8110156114dd5761149b816114b49360018894018155614755565b90919082549060031b91821b91600019901b1916179055565b3360005260126020526001604060002054036113e5576114d5601a546144df565b601a556113e5565b634e487b7160e01b600052604160045260246000fd5b826000526005602052604060002060018060a01b03331660005260205260406000206115208382546144ee565b9055600481016115318382546144ee565b9055611395565b60405162461bcd60e51b815260206004820152601160248201527010995b1bddc81b5a5b9a5b5d5b4818995d607a1b6044820152606490fd5b506002548111156112b5565b346103c95760203660031901126103c9576105b560043561159c614716565b508060005260076020526115b760ff6040600020541661481d565b6000818152600b602090815260408083206008835281842054600c845282852054600d855283862054600e865284872054600f87528588206011909752968590205494519760ff9095169661163e96959094919391611620916116198b61430d565b8a5261439d565b602089015260408801526060870152608086015260a085015261439d565b60c083015260e08201526040519182916020835260208301906141d0565b346103c95760203660031901126103c95760043560005260096020526020604060002054604051908152f35b346103c95760203660031901126103c957600435600081151580611737575b6116b0906144fb565b8181526007602052604081205460ff161561170f575080600052600c60205260406000205490600052600d602052604060002054906105b56116f283836144ee565b604051938493846040919493926060820195825260208201520152565b604091815260036020522060046003820154910154906105b561173283836144ee565b6116f2565b506002548211156116a7565b346103c95760003660031901126103c9576020601c54604051908152f35b346103c95760003660031901126103c9576020601754604051908152f35b346103c95760206117c461179236614278565b91801515806117cc575b6117a5906144fb565b80600052600785526117bf60ff604060002054161561453f565b614a9a565b604051908152f35b5060025481111561179c565b346103c95760603660031901126103c9576004356001600160401b0381116103c95761180890369060040161423c565b602435916044359160ff83168093036103c95761184f337f00000000000000000000000000000000000000000000000000000000000000006001600160a01b0316146146a1565b8015611b8e5742841115611b49576301e13380420180421161080c578411611b11576006831015611ad9576118856002546144df565b93846002556203f48081019384821161080c576040516118a481614344565b6118ad84614a7f565b6118ba604051918261437c565b84815236858701116103c957848660208301376000602086830101528152866020820184815260408301978852606083019260008452608081016000815260a08201906000825260c08301956000875260e084019b60008d526101008501953387526101208601978a89526000526003602052604060002095518051906001600160401b0382116114dd57611959826119538a5461429b565b8a614784565b602090601f8311600114611a6a5791806119939260069a999897969594600092611a5f575b50508160011b916000199060031b1c19161790565b86555b5160018601555160028501555160038401555160048301555160058201550192516003811015610659578354985161ffff1990991660ff9091161797151560081b61ff00169790971782557f79a66e9d2b60f0afba265f487558fcb240a14303ba0c938345e54312c64fee4d96518254915162010000600160b81b031990921660109190911b62010000600160b01b03161760b09190911b60ff60b01b16179055604051606080825290948594611a4f928601916147dc565b91602084015260408301520390a2005b01519050388061197e565b90601f1983169189600052816000209260005b818110611ac1575091600193918560069c9b9a999897969410611aa8575b505050811b018655611996565b015160001960f88460031b161c19169055388080611a9b565b92936020600181928786015181550195019301611a7d565b60405162461bcd60e51b815260206004820152601060248201526f496e76616c69642063617465676f727960801b6044820152606490fd5b60405162461bcd60e51b815260206004820152601060248201526f22b732103a34b6b2903a37b7903330b960811b6044820152606490fd5b60405162461bcd60e51b815260206004820152601760248201527f456e642074696d65206d757374206265206675747572650000000000000000006044820152606490fd5b60405162461bcd60e51b815260206004820152600e60248201526d22b6b83a3c9038bab2b9ba34b7b760911b6044820152606490fd5b346103c95760003660031901126103c9576040517f00000000000000000000000000000000000000000000000000000000000000006001600160a01b03168152602090f35b346103c95760003660031901126103c9576020601654604051908152f35b346103c95760403660031901126103c957611c40614059565b600435600052601360205260406000209060018060a01b0316600052602052602060ff604060002054166040519015158152f35b346103c95760003660031901126103c957600a54611c9181614601565b600a549160005b818110611cb557604051602080825281906105b590820186614177565b600084821015611daa57906110ec60ff82602085600a600197522001604060009154918281526003602052206003810154600482015491611cf683836144ee565b611d008484614bfc565b9490938a840154600285015490611d2660058701549660068101549a6040519d8e6142f1565b60208c015260408b015260608a0152608089015260a088015260c087015260e0860152611d598484166101008701614651565b838360081c161515610120860152868060a01b038360101c1661014086015261016085015261018084015260b01c166101a0820152611d988286614680565b52611da38185614680565b5001611c98565b634e487b7160e01b81526032600452602490fd5b346103c95760403660031901126103c957611df4611de060243560043561489e565b604051928392604084526040840190614177565b9060208301520390f35b346103c95760203660031901126103c9576004356003811015806103c9576002805490831491600060015b828482111561204a575050611e3d90614601565b9260019160005b84841115611e6257604051602080825281906105b590820189614177565b81610659578215611ee75783600052600760205260ff6040600020541615611edd57611ed18185611e96611ed7948a614680565b51526002610100611ea7838b614680565b51015285600052601160205260ff604060002054166101a0611ec9838b614680565b5101526144df565b936144df565b92611e44565b92611ed7906144df565b9280600052600760205260ff604060002054168015612009575b612000578060005260036020526040600020936003850154600486015490611f2982826144ee565b611f338383614bfc565b92909160018a01549460028b01549260058c01549360068d015497604051809e611f5c826142f1565b8c8252611f689061439d565b60208201526040015260608d015260808c015260a08b015260c08a015260e0890152611f9b60ff84166101008a01614651565b8260081c60ff161515610120890152600160a01b600190038360101c1661014089015261016088015261018087015260b01c60ff166101a086015280611fe0906144df565b94611feb8289614680565b52611ff69087614680565b50611ed7906144df565b611ed7906144df565b50809150600052600360205260ff6006604060002001541690600091600381101561203657871415611f01565b634e487b7160e01b83526021600452602483fd5b61065957841561208e5780600052600760205260ff60406000205416612079575b612074906144df565b611e29565b90612086612074916144df565b91905061206b565b80600052600760205260ff6040600020541615806120b4575b61207957612074906144df565b50809250600052600360205260ff600660406000200154169160009260038110156120e05786146120a7565b634e487b7160e01b84526021600452602484fd5b346103c957608061216861271061210a36614278565b9391801515806121a6575b61211e906144fb565b80600052600760205261213960ff604060002054161561453f565b600052600360205261215960406000206004600382015491015490614bfc565b90911561219d575080936147c9565b0490620186a061217a600054846147c9565b046121858184614694565b90604051938452602084015260408301526060820152f35b905080936147c9565b50600254811115612115565b346103c95760003660031901126103c95760206040516203f4808152f35b346103c95760003660031901126103c9576020601554604051908152f35b346103c95760003660031901126103c95760206040516127108152f35b346103c95760003660031901126103c957600061012060405161222d81614344565b8281528260208201528260408201528260608201528260808201528260a08201528260c08201528260e082015282610100820152015261014060025460175460185460145460155460165460195491601a5493601b5495601c549761012060405161229781614344565b8b81526020810192835260408101938452606081019485526080810195865260a0810196875260c0810197885260e081019889526101008101998a5201988952604051998a525160208a01525160408901525160608801525160808701525160a08601525160c08501525160e08401525161010083015251610120820152f35b346103c95760203660031901126103c95760043561235f337f00000000000000000000000000000000000000000000000000000000000000006001600160a01b0316146146a1565b6109c48111612399576020817f8c4d35e54a3f2ef1134138fd8ea3daee6a3c89e10d2665996babdf70261e2c7692600055604051908152a1005b60405162461bcd60e51b815260206004820152601760248201527f45786365656473206d617820666565206f6620322e35250000000000000000006044820152606490fd5b346103c95760003660031901126103c9576020600154604051908152f35b346103c95760203660031901126103c9576004356001601d5461242260ff8216156146d9565b60ff191617601d558015158061262b575b61243c906144fb565b80600052600760205261245760ff604060002054161561453f565b8060005260036020526040600020600681015460ff81166003811015610659576001036125f05760008381526006602090815260408083203384529091529020546124a59060ff1615614860565b60009060081c60ff16156125c25750816000526004602052604060002060018060a01b03331660005260205260406000205490600460038201549101545b82156125875780612569575050905b60008181526006602090815260408083203384529091529020805460ff19166001179055601b546125249083906144ee565b601b556125318233614cb5565b6040519182527f5380cf6fe903b40c6d5a9e0dfbca2f3a423f0a21520b4d5947ed5169bdba946d60203393a3601d805460ff19169055005b82916105e861257b92612581956147c9565b906144ee565b906124f2565b60405162461bcd60e51b81526020600482015260136024820152722737903bb4b73734b733903837b9b4ba34b7b760691b6044820152606490fd5b808360409252600560205281812060018060a01b0333168252602052205490600360048201549101546124e3565b60405162461bcd60e51b815260206004820152601360248201527213585c9ad95d081b9bdd081c995cdbdb1d9959606a1b6044820152606490fd5b50600254811115612433565b346103c95760003660031901126103c957602060405166038d7ea4c680008152f35b346103c95760203660031901126103c9576004356001601d5461267f60ff8216156146d9565b60ff191617601d558060005260076020526126a160ff6040600020541661481d565b60008181526006602090815260408083203384529091529020546126c89060ff1615614860565b600081815260046020908152604080832033808552908352818420548585526005845282852091855292529091205490919061270481846144ee565b8015612796577f741dbc3d220701dc9db59286031a879277af10f110ca3b1a14b15256e0dce9a591836000526006602052604060002060018060a01b0333166000526020526040600020600160ff1982541617905561276582601c546144ee565b601c556127728233614cb5565b6040805195865260208601919091528401523392606090a3601d805460ff19169055005b60405162461bcd60e51b8152602060048201526011602482015270139bdd1a1a5b99c81d1bc81c99599d5b99607a1b6044820152606490fd5b346103c95760403660031901126103c9576004356127eb614269565b61281f337f00000000000000000000000000000000000000000000000000000000000000006001600160a01b0316146146a1565b811515806129c5575b612831906144fb565b81600052600760205261284c60ff604060002054161561453f565b8160005260036020526040600020906006820160ff81541660038110156106595761298c576002830154421161292157805461ffff191682151560081b61ff001617600117905582600052600960205242604060002055600a5490600160401b8210156114dd577f71b668670f5341cfcc8094e91b9c6beeb06cbc13cd608aa869b673d843fed0a9926128ed8561149b85600160809701600a55600a614755565b6128f86017546144df565b6017556004600382015491015490604051921515835260208301526040820152426060820152a2005b60405162461bcd60e51b815260206004820152603760248201527f5265736f6c7574696f6e2077696e646f7720686173207061737365642063616e60448201527f63656c2074686973206d61726b657420696e73746561640000000000000000006064820152608490fd5b60405162461bcd60e51b8152602060048201526011602482015270105b1c9958591e48199a5b985b1a5cd959607a1b6044820152606490fd5b50600254821115612828565b346103c95760003660031901126103c957602060405160198152f35b346103c95760203660031901126103c957612a06614043565b6001600160a01b03166000818152601260205260408120805492829182918291825b878110612a6357505050906105b59291604051958695869192608093969594919660a084019784526020840152604083015260608201520152565b612a6d8183614755565b90549060031b1c96876000526004602052604080600020600090868252602052205490886000526005602052612ab860408060002060009088825260205220549161257b83856144ee565b9880600052600660205260ff604080600020600090898252602052205416612bc35780600052600760205260ff60406000205416612bab576000526003602052604060002091600683015460ff8116600381101561065957600114612b26575b505050506001905b01612a28565b60081c60ff16918215612ba35750915b8115612b98576003810154915b15612b8f57600401545b82612b59575b80612b18565b916001939791612b74938015600014612b7d575050906144ee565b94908980612b53565b82916105e861257b9261257b956147c9565b60030154612b4d565b600481015491612b43565b905091612b36565b509661257b60019398612bbd936144ee565b95612b20565b50505092612bd26001916144df565b93612b20565b346103c95760003660031901126103c95760008060145490601554926016546001600254905b81811115612c39575050906105b59291604051958695869192608093969594919660a084019784526020840152604083015260608201520152565b80600052600760205260ff60406000205416612cb257806000526003602052604060002060ff60068201541660038110156106595715612c83575b50612c7e906144df565b612bfe565b9361257b8560046003612c9d9599980154910154906144ee565b926001810180911161080c5793612c7e612c74565b612c7e906144df565b346103c95760203660031901126103c95760043560005260086020526020604060002054604051908152f35b346103c95760403660031901126103c9576004356024356001600160401b0381116103c957612d1a90369060040161423c565b90612d4f337f00000000000000000000000000000000000000000000000000000000000000006001600160a01b0316146146a1565b821515806131b0575b612d61906144fb565b82600052600760205260ff604060002054166131775782600052600360205260ff600660406000200154166003811015610659576131325781156130fb5782600052600360205260406000209160038301546004840154600585015460ff6006612dca8861439d565b97015460b01c16958760005260076020526040600020600160ff1982541617905587600052600860205242604060002055612e066018546144df565b601855612e1e612e1684866144ee565b6019546144ee565b60195587600052600b6020526040600020908051906001600160401b0382116114dd57612e5582612e4f855461429b565b85614784565b602090601f831160011461309457612e859291600091836130895750508160011b916000199060031b1c19161790565b90555b6000878152600c60209081526040808320869055600d8252808320859055600e825280832093909355600f9052206001600160401b0384116114dd57612ed884612ed2835461429b565b83614784565b600084601f81116001146130265780612f079260009161301b575b508160011b916000199060031b1c19161790565b90555b60105494600160401b8610156114dd57612f518761149b8860017f7b989a39559611c657e421c8476d3569b9b2c6c00382d9101806d014f70795d49a016010556010614755565b86600052601160205260406000209060ff198254161790558560005260036020526000600660408220612f84815461429b565b80612fd8575b508260018201558260028201558260038201558260048201558260058201550155612fc26040519485946080865260808601916147dc565b91602084015260408301524260608301520390a2005b601f8111600114612fee57508281555b89612f8a565b8184526020842061300a91601f0160051c81019060010161476d565b808352826020812081835555612fe8565b90508701358a612ef3565b50818152602081209085601f198116825b81811061306e575010613054575b5050600184811b019055612f0a565b860135600019600387901b60f8161c191690558780613045565b89840135855560019094019360209384019389935001613037565b015190508b8061197e565b90601f1983169184600052816000209260005b8181106130e357509084600195949392106130ca575b505050811b019055612e88565b015160001960f88460031b161c191690558a80806130bd565b929360206001819287860151815501950193016130a7565b60405162461bcd60e51b815260206004820152600f60248201526e1499585cdbdb881c995c5d5a5c9959608a1b6044820152606490fd5b60405162461bcd60e51b815260206004820152601f60248201527f43616e6e6f742063616e63656c2061207265736f6c766564206d61726b6574006044820152606490fd5b60405162461bcd60e51b8152602060048201526011602482015270105b1c9958591e4818d85b98d95b1b1959607a1b6044820152606490fd5b50600254831115612d58565b346103c95760403660031901126103c9576131d5614059565b600435600052600460205260406000209060018060a01b03166000526020526020604060002054604051908152f35b346103c95760203660031901126103c95761321d614043565b6001600160a01b03811660009081526012602052604090208054909161324282614582565b92613250604051948561437c565b828452601f1961325f84614582565b0160005b81811061338d5750506001600160a01b039091169060005b8381106132eb578460405180916020820160208352815180915260206040840192019060005b8181106132af575050500390f35b919350916020608060019260608751805183528481015185840152604081015160408401520151151560608201520194019101918493926132a1565b806132f860019284614755565b90549060031b1c8060005260046020526040806000206000908782526020522054816000526005602052604080600020600090888252602052205482600052600660205260ff6040806000206000908a8252602052205416916040519361335e85614329565b8452602084015260408301521515606082015261337b8288614680565b526133868187614680565b500161327b565b60209060409594955161339f81614329565b60008152600083820152600060408201526000606082015282828901015201939293613263565b346103c95760003660031901126103c9576020600054604051908152f35b346103c95760203660031901126103c9576133fd614043565b6001600160a01b03811660009081526012602052604081208054919290835b8381106136d9575061342d84614582565b9361343b604051958661437c565b80855261344a601f1991614582565b0160005b8181106136845750506001600160a01b0390911690600090815b84811061353657856040518091602082016020835281518091526040830190602060408260051b8601019301916000905b8282106134a857505050500390f35b919360019193955060208091603f198982030185528751908151815260e060ff816134f76134e5878701516101008988015261010087019061406f565b6040870151868203604088015261406f565b94606081015160608601526080810151608086015260a081015160a086015260c081015160c08601520151169101529601920192018594939192613499565b6135408183614755565b90549060031b1c9283600052600760205260ff60406000205416158015613661575b61365757836000526004602052604080600020600090878252602052205484600052600560205260408060002060009088825260205220546135a481836144ee565b90811561364a576000878152600b60209081526040808320600f835281842060088452828520546011909452938290205491519a60ff9092169693916135e98c61430d565b8b526135f49061439d565b60208b01526136029061439d565b60408a01526060890152608088015260a087015260c086015260e0850152613629816144df565b936136348289614680565b5261363f9087614680565b506001905b01613468565b5050509250600190613644565b9250600190613644565b5083600052600660205260ff604080600020600090888252602052205416613562565b6020906040959495516136968161430d565b60008152606083820152606060408201526000606082015260006080820152600060a0820152600060c0820152600060e08201528282890101520193929361344e565b6136e68183959495614755565b90549060031b1c80600052600760205260ff6040600020541680613776575b613716575b5060010192919261341c565b60008181526004602090815260408083206001600160a01b0389168085529083528184205494845260058352818420908452909152902054613757916144ee565b613762575b8561370a565b9361376e6001916144df565b94905061375c565b5060008181526006602090815260408083206001600160a01b038916845290915290205460ff1615613705565b346103c95760003660031901126103c9576020601854604051908152f35b346103c95760003660031901126103c9576010546137de81614582565b906137ec604051928361437c565b808252601f196137fb82614582565b0160005b8181106139405750506010549060005b81811061387e57836040518091602082016020835281518091526040830190602060408260051b8601019301916000905b82821061384f57505050500390f35b9193600191939550602061386e8192603f198a820301865288516141d0565b9601920192018594939192613840565b600083821015611daa57601090527f1b6847dc741a1b0cd08d278845f9d819d87b734759afb55fe2de5cb82a9ae6728101546000818152600b602090815260408083206008835281842054600c845282852054600d855283862054600e865284872054600f875285882060119097529685902054945160019998909760ff9096169661391a96909590949293929161162091906116198b61430d565b60c083015260e082015261392e8287614680565b526139398186614680565b500161380f565b60209061394b614716565b828287010152016137ff565b346103c95760203660031901126103c957613970614043565b6139a4337f00000000000000000000000000000000000000000000000000000000000000006001600160a01b0316146146a1565b6001601d546139b660ff8216156146d9565b60ff191617601d556001600160a01b038116908115613a4e57600154908115613a1f5781613a0c7fc0819c13be868895eb93e40eaceb96de976442fa1d404e5c55f14bb65a8c489a936020936000600155614cb5565b604051908152a2601d805460ff19169055005b60405162461bcd60e51b81526020600482015260076024820152664e6f206665657360c81b6044820152606490fd5b60405162461bcd60e51b815260206004820152600c60248201526b5a65726f206164647265737360a01b6044820152606490fd5b346103c95760403660031901126103c957613a9b614059565b600435600052600560205260406000209060018060a01b03166000526020526020604060002054604051908152f35b346103c95760203660031901126103c957600435600254808211613c84575b613af282614601565b90600092600060015b83811115613b1957604051602080825281906105b590820188614177565b80600052600760205260ff60406000205416613c24578060005260036020528086604060002060ff6005820154916003810154600482015490613b5c82826144ee565b613b668383614bfc565b9390926001860154600287015490613b8b6006890154986040519d8e61073e816142f1565b60208d015260408c015260608b015260808a015260a089015260c08801528460e0880152613bbf8484166101008901614651565b600883901c84161515610120880152601083901c6001600160a01b031661014088015261016087015261018086015260b01c166101a0840152858411613c4c575050600019820182811161080c57613c1b916107d48289614680565b50828114613c32575b613c2d906144df565b613afb565b945050613c2d613c428285614c5b565b9190959050613c24565b11613c5c575b50613c2d906144df565b82919650610843613c6d9387614680565b50613c2d613c7b8285614c5b565b91909590613c52565b905080613ae9565b346103c95760003660031901126103c9576020601b54604051908152f35b346103c95760203660031901126103c95760043580151580613d18575b613cd0906144fb565b806000526007602052613ceb60ff604060002054161561453f565b60005260036020526040613d0c816000206004600382015491015490614bfc565b82519182526020820152f35b50600254811115613cc7565b346103c95760403660031901126103c957613d3d614059565b600435600052600660205260406000209060018060a01b0316600052602052602060ff604060002054166040519015158152f35b346103c95760003660031901126103c9576000610180604051613d93816142d5565b8281528260208201528260408201528260608201528260808201528260a08201528260c08201528260e08201528261010082015282610120820152826101408201528261016082015201526000806000600192600254925b83851115613ed9576101a0945060175491601854916014549160195490601b5492601c54946016549660155498601a549a6101808d60405190613e2d826142d5565b81526020810192835260408101938452606081019485526080810195865260a0810196875260c0810197885260e081019889526101008101998a5261012081019a8b5261014081019b8c5261016081019c8d52019b8c526040519c8d525160208d01525160408c01525160608b01525160808a01525160a08901525160c08801525160e08701525161010086015251610120850152516101408401525161016083015251610180820152f35b84600093929352600760205260ff60406000205416613f815784600052600360205260406000209060ff6006613f1860038501546004860154906144ee565b9301541660038110156106595780613f53575090613f35916144ee565b906001810180911161080c57613f4b90946144df565b939190613deb565b92959092909190600114613f6c575b50613f4b906144df565b613f7a90613f4b92946144ee565b9290613f62565b9093613f4b906144df565b346103c95760203660031901126103c9576001600160a01b03613fad614043565b16600052601260205260406000209081548082526020820190819360005260206000209060005b81811061402d5750505081613fea91038261437c565b6040519182916020830190602084525180915260408301919060005b818110614014575050500390f35b8251845285945060209384019390920191600101614006565b8254845260209093019260019283019201613fd4565b600435906001600160a01b03821682036103c957565b602435906001600160a01b03821682036103c957565b919082519283825260005b84811061409b575050826000602080949584010152601f8019910116010190565b8060208092840101518282860101520161407a565b9060038210156106595752565b90815181526101a060ff816140e360208601516101c060208701526101c086019061406f565b9460408101516040860152606081015160608601526080810151608086015260a081015160a086015260c081015160c086015260e081015160e08601526141346101008201516101008701906140b0565b610120810151151561012086015260018060a01b036101408201511661014086015261016081015161016086015261018081015161018086015201511691015290565b9080602083519182815201916020808360051b8301019401926000915b8383106141a357505050505090565b90919293946020806141c1600193601f1986820301875289516140bd565b97019301930191939290614194565b908151815260e060ff816142326141f86020870151610100602088015261010087019061406f565b60408701516040870152606087015160608701526080870151608087015260a087015160a087015260c087015186820360c088015261406f565b9401511691015290565b9181601f840112156103c9578235916001600160401b0383116103c957602083818601950101116103c957565b6024359081151582036103c957565b60609060031901126103c9576004359060243580151581036103c9579060443590565b90600182811c921680156142cb575b60208310146142b557565b634e487b7160e01b600052602260045260246000fd5b91607f16916142aa565b6101a081019081106001600160401b038211176114dd57604052565b6101c081019081106001600160401b038211176114dd57604052565b61010081019081106001600160401b038211176114dd57604052565b608081019081106001600160401b038211176114dd57604052565b61014081019081106001600160401b038211176114dd57604052565b61018081019081106001600160401b038211176114dd57604052565b90601f801991011681019081106001600160401b038211176114dd57604052565b90604051918260008254926143b18461429b565b808452936001811690811561441f57506001146143d8575b506143d69250038361437c565b565b90506000929192526020600020906000915b8183106144035750509060206143d692820101386143c9565b60209193508060019154838589010152019101909184926143ea565b9050602092506143d694915060ff191682840152151560051b820101386143c9565b908151815261016060ff816144676020860151610180602087015261018086019061406f565b94604081015115156040860152606081015160608601526080810151608086015260a081015160a086015260c081015160c086015260e0810151151560e086015261010081015115156101008601526101208101516101208601526144d66101408201516101408701906140b0565b01511691015290565b600019811461080c5760010190565b9190820180921161080c57565b1561450257565b60405162461bcd60e51b815260206004820152601560248201527413585c9ad95d08191bd95cc81b9bdd08195e1a5cdd605a1b6044820152606490fd5b1561454657565b60405162461bcd60e51b815260206004820152601460248201527313585c9ad95d081dd85cc818d85b98d95b1b195960621b6044820152606490fd5b6001600160401b0381116114dd5760051b60200190565b604051906145a6826142f1565b60006101a083828152606060208201528260408201528260608201528260808201528260a08201528260c08201528260e082015282610100820152826101208201528261014082015282610160820152826101808201520152565b9061460b82614582565b614618604051918261437c565b8281528092614629601f1991614582565b019060005b82811061463a57505050565b602090614645614599565b8282850101520161462e565b60038210156106595752565b80511561466a5760200190565b634e487b7160e01b600052603260045260246000fd5b805182101561466a5760209160051b010190565b9190820391821161080c57565b156146a857565b60405162461bcd60e51b81526020600482015260096024820152682737ba1037bbb732b960b91b6044820152606490fd5b156146e057565b60405162461bcd60e51b815260206004820152600e60248201526d1499595b9d1c985b9d0818d85b1b60921b6044820152606490fd5b604051906147238261430d565b600060e083828152606060208201528260408201528260608201528260808201528260a0820152606060c08201520152565b805482101561466a5760005260206000200190600090565b818110614778575050565b6000815560010161476d565b9190601f811161479357505050565b6143d6926000526020600020906020601f840160051c830193106147bf575b601f0160051c019061476d565b90915081906147b2565b8181029291811591840414171561080c57565b908060209392818452848401376000828201840152601f01601f1916010190565b8115614807570490565b634e487b7160e01b600052601260045260246000fd5b1561482457565b60405162461bcd60e51b815260206004820152601460248201527313585c9ad95d081b9bdd0818d85b98d95b1b195960621b6044820152606490fd5b1561486757565b60405162461bcd60e51b815260206004820152600f60248201526e105b1c9958591e4818db185a5b5959608a1b6044820152606490fd5b916002549160648111614a77575b82841015614a38576148be8484614694565b90808211614a30575b506148d181614601565b9360005b8281106148e157505050565b806148f76001926148f28589614694565b614694565b80600052600760205260ff604060002054166149eb5760ff816110ec9260005260036020526040600020600381015460048201549161493683836144ee565b6149408484614bfc565b9490938a84015460028501549061496660058701549660068101549a6040519d8e6142f1565b60208c015260408b015260608a0152608089015260a088015260c087015260e08601526149998484166101008701614651565b838360081c161515610120860152868060a01b038360101c1661014086015261016085015261018084015260b01c166101a08201526149d88289614680565b526149e38188614680565b505b016148d5565b806149f6838a614680565b51526002610100614a07848b614680565b510152600052601160205260ff604060002054166101a0614a28838a614680565b5101526149e5565b9050386148c7565b50604051919250906000614a4d60208361437c565b81526000805b818110614a605750509190565b602090614a6b614599565b82828601015201614a53565b5060646148ac565b6001600160401b0381116114dd57601f01601f191660200190565b6000526003602052614ac2604060002092620186a0614abb600054836147c9565b0490614694565b918115614b0c57614ad78360038301546144ee565b915b15614b0357600401545b8015614afe5782916105e861257b92614afb956147c9565b90565b505090565b60030154614ae3565b614b1a8360048301546144ee565b91614ad9565b15614b2757565b60405162461bcd60e51b815260206004820152600f60248201526e26b0b935b2ba103737ba1037b832b760891b6044820152606490fd5b15614b6557565b60405162461bcd60e51b815260206004820152601560248201527410995d1d1a5b99c81dda5b991bddc818db1bdcd959605a1b6044820152606490fd5b60405190614baf82614360565b600061016083828152606060208201528260408201528260608201528260808201528260a08201528260c08201528260e08201528261010082015282610120820152826101408201520152565b90670de0b6b3a7640000820180921161080c57670de0b6b3a7640000810180911161080c57614c2b90826144ee565b612710820291808304612710149015171561080c57614c49916147fd565b908161271003612710811161080c5790565b9160009160e0614c6a8561465d565b5101519360015b828110614c7d57505050565b8560e0614c8a8385614680565b51015110614c9b575b600101614c71565b9350935060e0614cab8486614680565b5101519383614c93565b6000918291829182916001600160a01b03165af13d15614d34573d614cd981614a7f565b90614ce7604051928361437c565b8152600060203d92013e5b15614cf957565b60405162461bcd60e51b8152602060048201526013602482015272115512081d1c985b9cd9995c8819985a5b1959606a1b6044820152606490fd5b614cf2565b9160009160c0614d488561465d565b5101519360015b828110614d5b57505050565b8560c0614d688385614680565b51015110614d79575b600101614d4f565b9350935060c0614d898486614680565b5101519383614d7156fea26469706673582212207f0bda9a6e9b91a47660025c3f650275cac5aba4098d210a1c9dba9890ad390864736f6c634300081c0033",
  "linkReferences": {},
  "deployedLinkReferences": {}
}