{
  "_format": "hh-sol-artifact-1",
  "contractName": "PredictionMarket",
  "sourceName": "contracts/PredictionMarket.sol",
  "abi": [
    {
      "inputs": [],
      "stateMutability": "nonpayable",
      "type": "constructor"
    },
    {
      "anonymous": false,
      "inputs": [
        {
          "indexed": false,
          "internalType": "uint256",
          "name": "newFeeBps",
          "type": "uint256"
        }
      ],
      "name": "FeeUpdated",
      "type": "event"
    },
    {
      "anonymous": false,
      "inputs": [
        {
          "indexed": true,
          "internalType": "address",
          "name": "to",
          "type": "address"
        },
        {
          "indexed": false,
          "internalType": "uint256",
          "name": "amount",
          "type": "uint256"
        }
      ],
      "name": "FeesWithdrawn",
      "type": "event"
    },
    {
      "anonymous": false,
      "inputs": [
        {
          "indexed": true,
          "internalType": "uint256",
          "name": "marketId",
          "type": "uint256"
        },
        {
          "indexed": false,
          "internalType": "string",
          "name": "reason",
          "type": "string"
        },
        {
          "indexed": false,
          "internalType": "uint256",
          "name": "totalYesAtCancel",
          "type": "uint256"
        },
        {
          "indexed": false,
          "internalType": "uint256",
          "name": "totalNoAtCancel",
          "type": "uint256"
        },
        {
          "indexed": false,
          "internalType": "uint256",
          "name": "cancelledAt",
          "type": "uint256"
        }
      ],
      "name": "MarketCancelled",
      "type": "event"
    },
    {
      "anonymous": false,
      "inputs": [
        {
          "indexed": true,
          "internalType": "uint256",
          "name": "marketId",
          "type": "uint256"
        },
        {
          "indexed": false,
          "internalType": "string",
          "name": "question",
          "type": "string"
        },
        {
          "indexed": false,
          "internalType": "uint256",
          "name": "endTime",
          "type": "uint256"
        },
        {
          "indexed": false,
          "internalType": "uint8",
          "name": "category",
          "type": "uint8"
        }
      ],
      "name": "MarketCreated",
      "type": "event"
    },
    {
      "anonymous": false,
      "inputs": [
        {
          "indexed": true,
          "internalType": "uint256",
          "name": "marketId",
          "type": "uint256"
        },
        {
          "indexed": false,
          "internalType": "bool",
          "name": "outcome",
          "type": "bool"
        },
        {
          "indexed": false,
          "internalType": "uint256",
          "name": "totalYesAtResolve",
          "type": "uint256"
        },
        {
          "indexed": false,
          "internalType": "uint256",
          "name": "totalNoAtResolve",
          "type": "uint256"
        },
        {
          "indexed": false,
          "internalType": "uint256",
          "name": "resolvedAt",
          "type": "uint256"
        }
      ],
      "name": "MarketResolved",
      "type": "event"
    },
    {
      "anonymous": false,
      "inputs": [
        {
          "indexed": true,
          "internalType": "uint256",
          "name": "marketId",
          "type": "uint256"
        },
        {
          "indexed": true,
          "internalType": "address",
          "name": "user",
          "type": "address"
        },
        {
          "indexed": false,
          "internalType": "bool",
          "name": "side",
          "type": "bool"
        },
        {
          "indexed": false,
          "internalType": "uint256",
          "name": "amount",
          "type": "uint256"
        },
        {
          "indexed": false,
          "internalType": "uint256",
          "name": "yesOdds",
          "type": "uint256"
        },
        {
          "indexed": false,
          "internalType": "uint256",
          "name": "noOdds",
          "type": "uint256"
        },
        {
          "indexed": false,
          "internalType": "uint256",
          "name": "totalYes",
          "type": "uint256"
        },
        {
          "indexed": false,
          "internalType": "uint256",
          "name": "totalNo",
          "type": "uint256"
        }
      ],
      "name": "PositionPlaced",
      "type": "event"
    },
    {
      "anonymous": false,
      "inputs": [
        {
          "indexed": true,
          "internalType": "uint256",
          "name": "marketId",
          "type": "uint256"
        },
        {
          "indexed": true,
          "internalType": "address",
          "name": "user",
          "type": "address"
        },
        {
          "indexed": false,
          "internalType": "uint256",
          "name": "yesRefund",
          "type": "uint256"
        },
        {
          "indexed": false,
          "internalType": "uint256",
          "name": "noRefund",
          "type": "uint256"
        },
        {
          "indexed": false,
          "internalType": "uint256",
          "name": "totalRefund",
          "type": "uint256"
        }
      ],
      "name": "RefundClaimed",
      "type": "event"
    },
    {
      "anonymous": false,
      "inputs": [
        {
          "indexed": true,
          "internalType": "uint256",
          "name": "marketId",
          "type": "uint256"
        },
        {
          "indexed": true,
          "internalType": "address",
          "name": "user",
          "type": "address"
        },
        {
          "indexed": false,
          "internalType": "uint256",
          "name": "amount",
          "type": "uint256"
        }
      ],
      "name": "WinningsClaimed",
      "type": "event"
    },
    {
      "inputs": [],
      "name": "CATEGORY_COUNT",
      "outputs": [
        {
          "internalType": "uint8",
          "name": "",
          "type": "uint8"
        }
      ],
      "stateMutability": "view",
      "type": "function"
    },
    {
      "inputs": [],
      "name": "DEFAULT_FEE",
      "outputs": [
        {
          "internalType": "uint256",
          "name": "",
          "type": "uint256"
        }
      ],
      "stateMutability": "view",
      "type": "function"
    },
    {
      "inputs": [],
      "name": "FEE_DENOMINATOR",
      "outputs": [
        {
          "internalType": "uint256",
          "name": "",
          "type": "uint256"
        }
      ],
      "stateMutability": "view",
      "type": "function"
    },
    {
      "inputs": [],
      "name": "MAX_DURATION",
      "outputs": [
        {
          "internalType": "uint256",
          "name": "",
          "type": "uint256"
        }
      ],
      "stateMutability": "view",
      "type": "function"
    },
    {
      "inputs": [],
      "name": "MAX_FEE_BPS",
      "outputs": [
        {
          "internalType": "uint256",
          "name": "",
          "type": "uint256"
        }
      ],
      "stateMutability": "view",
      "type": "function"
    },
    {
      "inputs": [],
      "name": "MIN_BET",
      "outputs": [
        {
          "internalType": "uint256",
          "name": "",
          "type": "uint256"
        }
      ],
      "stateMutability": "view",
      "type": "function"
    },
    {
      "inputs": [],
      "name": "ODDS_PRECISION",
      "outputs": [
        {
          "internalType": "uint256",
          "name": "",
          "type": "uint256"
        }
      ],
      "stateMutability": "view",
      "type": "function"
    },
    {
      "inputs": [],
      "name": "RESOLUTION_WINDOW",
      "outputs": [
        {
          "internalType": "uint256",
          "name": "",
          "type": "uint256"
        }
      ],
      "stateMutability": "view",
      "type": "function"
    },
    {
      "inputs": [],
      "name": "VIRTUAL_LIQ",
      "outputs": [
        {
          "internalType": "uint256",
          "name": "",
          "type": "uint256"
        }
      ],
      "stateMutability": "view",
      "type": "function"
    },
    {
      "inputs": [],
      "name": "accruedFees",
      "outputs": [
        {
          "internalType": "uint256",
          "name": "",
          "type": "uint256"
        }
      ],
      "stateMutability": "view",
      "type": "function"
    },
    {
      "inputs": [
        {
          "internalType": "uint256",
          "name": "_marketId",
          "type": "uint256"
        },
        {
          "internalType": "string",
          "name": "_reason",
          "type": "string"
        }
      ],
      "name": "cancelMarket",
      "outputs": [],
      "stateMutability": "nonpayable",
      "type": "function"
    },
    {
      "inputs": [
        {
          "internalType": "uint256",
          "name": "",
          "type": "uint256"
        }
      ],
      "name": "cancelledAt",
      "outputs": [
        {
          "internalType": "uint256",
          "name": "",
          "type": "uint256"
        }
      ],
      "stateMutability": "view",
      "type": "function"
    },
    {
      "inputs": [
        {
          "internalType": "uint256",
          "name": "_marketId",
          "type": "uint256"
        }
      ],
      "name": "claimRefund",
      "outputs": [],
      "stateMutability": "nonpayable",
      "type": "function"
    },
    {
      "inputs": [
        {
          "internalType": "uint256",
          "name": "_marketId",
          "type": "uint256"
        }
      ],
      "name": "claimWinnings",
      "outputs": [],
      "stateMutability": "nonpayable",
      "type": "function"
    },
    {
      "inputs": [
        {
          "internalType": "uint256",
          "name": "",
          "type": "uint256"
        },
        {
          "internalType": "address",
          "name": "",
          "type": "address"
        }
      ],
      "name": "claimed",
      "outputs": [
        {
          "internalType": "bool",
          "name": "",
          "type": "bool"
        }
      ],
      "stateMutability": "view",
      "type": "function"
    },
    {
      "inputs": [
        {
          "internalType": "string",
          "name": "_question",
          "type": "string"
        },
        {
          "internalType": "uint256",
          "name": "_durationSeconds",
          "type": "uint256"
        },
        {
          "internalType": "uint8",
          "name": "_category",
          "type": "uint8"
        }
      ],
      "name": "createMarket",
      "outputs": [],
      "stateMutability": "nonpayable",
      "type": "function"
    },
    {
      "inputs": [
        {
          "internalType": "uint256",
          "name": "_marketId",
          "type": "uint256"
        },
        {
          "internalType": "bool",
          "name": "_side",
          "type": "bool"
        },
        {
          "internalType": "uint256",
          "name": "_amount",
          "type": "uint256"
        }
      ],
      "name": "estimatePayout",
      "outputs": [
        {
          "internalType": "uint256",
          "name": "estimatedPayout",
          "type": "uint256"
        }
      ],
      "stateMutability": "view",
      "type": "function"
    },
    {
      "inputs": [],
      "name": "feeBps",
      "outputs": [
        {
          "internalType": "uint256",
          "name": "",
          "type": "uint256"
        }
      ],
      "stateMutability": "view",
      "type": "function"
    },
    {
      "inputs": [],
      "name": "getAnalytics",
      "outputs": [
        {
          "components": [
            {
              "internalType": "uint256",
              "name": "totalMarkets",
              "type": "uint256"
            },
            {
              "internalType": "uint256",
              "name": "openMarkets",
              "type": "uint256"
            },
            {
              "internalType": "uint256",
              "name": "resolvedMarkets",
              "type": "uint256"
            },
            {
              "internalType": "uint256",
              "name": "cancelledMarkets",
              "type": "uint256"
            },
            {
              "internalType": "uint256",
              "name": "totalVolume",
              "type": "uint256"
            },
            {
              "internalType": "uint256",
              "name": "openVolume",
              "type": "uint256"
            },
            {
              "internalType": "uint256",
              "name": "resolvedVolume",
              "type": "uint256"
            },
            {
              "internalType": "uint256",
              "name": "cancelledVolume",
              "type": "uint256"
            },
            {
              "internalType": "uint256",
              "name": "claimedVolume",
              "type": "uint256"
            },
            {
              "internalType": "uint256",
              "name": "refundedVolume",
              "type": "uint256"
            },
            {
              "internalType": "uint256",
              "name": "feesEarned",
              "type": "uint256"
            },
            {
              "internalType": "uint256",
              "name": "totalTrades",
              "type": "uint256"
            },
            {
              "internalType": "uint256",
              "name": "uniqueTraders",
              "type": "uint256"
            }
          ],
          "internalType": "struct PredictionMarket.AnalyticsDashboard",
          "name": "dash",
          "type": "tuple"
        }
      ],
      "stateMutability": "view",
      "type": "function"
    },
    {
      "inputs": [
        {
          "internalType": "uint256",
          "name": "_marketId",
          "type": "uint256"
        }
      ],
      "name": "getCancelledMarketInfo",
      "outputs": [
        {
          "components": [
            {
              "internalType": "uint256",
              "name": "marketId",
              "type": "uint256"
            },
            {
              "internalType": "string",
              "name": "question",
              "type": "string"
            },
            {
              "internalType": "uint256",
              "name": "cancelledAt",
              "type": "uint256"
            },
            {
              "internalType": "uint256",
              "name": "totalYesAtCancel",
              "type": "uint256"
            },
            {
              "internalType": "uint256",
              "name": "totalNoAtCancel",
              "type": "uint256"
            },
            {
              "internalType": "uint256",
              "name": "totalTradesAtCancel",
              "type": "uint256"
            },
            {
              "internalType": "string",
              "name": "reason",
              "type": "string"
            },
            {
              "internalType": "uint8",
              "name": "category",
              "type": "uint8"
            }
          ],
          "internalType": "struct PredictionMarket.CancelledMarketInfo",
          "name": "info",
          "type": "tuple"
        }
      ],
      "stateMutability": "view",
      "type": "function"
    },
    {
      "inputs": [],
      "name": "getCancelledMarkets",
      "outputs": [
        {
          "components": [
            {
              "internalType": "uint256",
              "name": "marketId",
              "type": "uint256"
            },
            {
              "internalType": "string",
              "name": "question",
              "type": "string"
            },
            {
              "internalType": "uint256",
              "name": "cancelledAt",
              "type": "uint256"
            },
            {
              "internalType": "uint256",
              "name": "totalYesAtCancel",
              "type": "uint256"
            },
            {
              "internalType": "uint256",
              "name": "totalNoAtCancel",
              "type": "uint256"
            },
            {
              "internalType": "uint256",
              "name": "totalTradesAtCancel",
              "type": "uint256"
            },
            {
              "internalType": "string",
              "name": "reason",
              "type": "string"
            },
            {
              "internalType": "uint8",
              "name": "category",
              "type": "uint8"
            }
          ],
          "internalType": "struct PredictionMarket.CancelledMarketInfo[]",
          "name": "list",
          "type": "tuple[]"
        }
      ],
      "stateMutability": "view",
      "type": "function"
    },
    {
      "inputs": [],
      "name": "getGlobalStats",
      "outputs": [
        {
          "components": [
            {
              "internalType": "uint256",
              "name": "totalMarkets",
              "type": "uint256"
            },
            {
              "internalType": "uint256",
              "name": "totalResolvedMarkets",
              "type": "uint256"
            },
            {
              "internalType": "uint256",
              "name": "totalCancelledMarkets",
              "type": "uint256"
            },
            {
              "internalType": "uint256",
              "name": "totalVolume",
              "type": "uint256"
            },
            {
              "internalType": "uint256",
              "name": "totalTrades",
              "type": "uint256"
            },
            {
              "internalType": "uint256",
              "name": "totalFeesEarned",
              "type": "uint256"
            },
            {
              "internalType": "uint256",
              "name": "cancelledVolume",
              "type": "uint256"
            },
            {
              "internalType": "uint256",
              "name": "uniqueTraders",
              "type": "uint256"
            },
            {
              "internalType": "uint256",
              "name": "claimedVolume",
              "type": "uint256"
            },
            {
              "internalType": "uint256",
              "name": "refundedVolume",
              "type": "uint256"
            }
          ],
          "internalType": "struct PredictionMarket.GlobalStats",
          "name": "",
          "type": "tuple"
        }
      ],
      "stateMutability": "view",
      "type": "function"
    },
    {
      "inputs": [
        {
          "internalType": "uint256",
          "name": "_marketId",
          "type": "uint256"
        }
      ],
      "name": "getMarketSummary",
      "outputs": [
        {
          "components": [
            {
              "internalType": "uint256",
              "name": "marketId",
              "type": "uint256"
            },
            {
              "internalType": "string",
              "name": "question",
              "type": "string"
            },
            {
              "internalType": "uint256",
              "name": "endTime",
              "type": "uint256"
            },
            {
              "internalType": "uint256",
              "name": "resolutionDeadline",
              "type": "uint256"
            },
            {
              "internalType": "uint256",
              "name": "totalYes",
              "type": "uint256"
            },
            {
              "internalType": "uint256",
              "name": "totalNo",
              "type": "uint256"
            },
            {
              "internalType": "uint256",
              "name": "totalVolume",
              "type": "uint256"
            },
            {
              "internalType": "uint256",
              "name": "totalTrades",
              "type": "uint256"
            },
            {
              "internalType": "enum PredictionMarket.MarketStatus",
              "name": "status",
              "type": "uint8"
            },
            {
              "internalType": "bool",
              "name": "outcome",
              "type": "bool"
            },
            {
              "internalType": "address",
              "name": "creator",
              "type": "address"
            },
            {
              "internalType": "uint256",
              "name": "yesOdds",
              "type": "uint256"
            },
            {
              "internalType": "uint256",
              "name": "noOdds",
              "type": "uint256"
            },
            {
              "internalType": "uint8",
              "name": "category",
              "type": "uint8"
            }
          ],
          "internalType": "struct PredictionMarket.MarketSummary",
          "name": "summary",
          "type": "tuple"
        }
      ],
      "stateMutability": "view",
      "type": "function"
    },
    {
      "inputs": [
        {
          "internalType": "uint256",
          "name": "_marketId",
          "type": "uint256"
        }
      ],
      "name": "getMarketVolume",
      "outputs": [
        {
          "internalType": "uint256",
          "name": "totalYes",
          "type": "uint256"
        },
        {
          "internalType": "uint256",
          "name": "totalNo",
          "type": "uint256"
        },
        {
          "internalType": "uint256",
          "name": "totalVolume",
          "type": "uint256"
        }
      ],
      "stateMutability": "view",
      "type": "function"
    },
    {
      "inputs": [
        {
          "internalType": "uint256",
          "name": "_offset",
          "type": "uint256"
        },
        {
          "internalType": "uint256",
          "name": "_limit",
          "type": "uint256"
        }
      ],
      "name": "getMarkets",
      "outputs": [
        {
          "components": [
            {
              "internalType": "uint256",
              "name": "marketId",
              "type": "uint256"
            },
            {
              "internalType": "string",
              "name": "question",
              "type": "string"
            },
            {
              "internalType": "uint256",
              "name": "endTime",
              "type": "uint256"
            },
            {
              "internalType": "uint256",
              "name": "resolutionDeadline",
              "type": "uint256"
            },
            {
              "internalType": "uint256",
              "name": "totalYes",
              "type": "uint256"
            },
            {
              "internalType": "uint256",
              "name": "totalNo",
              "type": "uint256"
            },
            {
              "internalType": "uint256",
              "name": "totalVolume",
              "type": "uint256"
            },
            {
              "internalType": "uint256",
              "name": "totalTrades",
              "type": "uint256"
            },
            {
              "internalType": "enum PredictionMarket.MarketStatus",
              "name": "status",
              "type": "uint8"
            },
            {
              "internalType": "bool",
              "name": "outcome",
              "type": "bool"
            },
            {
              "internalType": "address",
              "name": "creator",
              "type": "address"
            },
            {
              "internalType": "uint256",
              "name": "yesOdds",
              "type": "uint256"
            },
            {
              "internalType": "uint256",
              "name": "noOdds",
              "type": "uint256"
            },
            {
              "internalType": "uint8",
              "name": "category",
              "type": "uint8"
            }
          ],
          "internalType": "struct PredictionMarket.MarketSummary[]",
          "name": "page",
          "type": "tuple[]"
        },
        {
          "internalType": "uint256",
          "name": "total",
          "type": "uint256"
        }
      ],
      "stateMutability": "view",
      "type": "function"
    },
    {
      "inputs": [
        {
          "internalType": "enum PredictionMarket.MarketStatus",
          "name": "_status",
          "type": "uint8"
        }
      ],
      "name": "getMarketsByStatus",
      "outputs": [
        {
          "components": [
            {
              "internalType": "uint256",
              "name": "marketId",
              "type": "uint256"
            },
            {
              "internalType": "string",
              "name": "question",
              "type": "string"
            },
            {
              "internalType": "uint256",
              "name": "endTime",
              "type": "uint256"
            },
            {
              "internalType": "uint256",
              "name": "resolutionDeadline",
              "type": "uint256"
            },
            {
              "internalType": "uint256",
              "name": "totalYes",
              "type": "uint256"
            },
            {
              "internalType": "uint256",
              "name": "totalNo",
              "type": "uint256"
            },
            {
              "internalType": "uint256",
              "name": "totalVolume",
              "type": "uint256"
            },
            {
              "internalType": "uint256",
              "name": "totalTrades",
              "type": "uint256"
            },
            {
              "internalType": "enum PredictionMarket.MarketStatus",
              "name": "status",
              "type": "uint8"
            },
            {
              "internalType": "bool",
              "name": "outcome",
              "type": "bool"
            },
            {
              "internalType": "address",
              "name": "creator",
              "type": "address"
            },
            {
              "internalType": "uint256",
              "name": "yesOdds",
              "type": "uint256"
            },
            {
              "internalType": "uint256",
              "name": "noOdds",
              "type": "uint256"
            },
            {
              "internalType": "uint8",
              "name": "category",
              "type": "uint8"
            }
          ],
          "internalType": "struct PredictionMarket.MarketSummary[]",
          "name": "result",
          "type": "tuple[]"
        }
      ],
      "stateMutability": "view",
      "type": "function"
    },
    {
      "inputs": [
        {
          "internalType": "uint256",
          "name": "_marketId",
          "type": "uint256"
        }
      ],
      "name": "getOdds",
      "outputs": [
        {
          "internalType": "uint256",
          "name": "yesOdds",
          "type": "uint256"
        },
        {
          "internalType": "uint256",
          "name": "noOdds",
          "type": "uint256"
        }
      ],
      "stateMutability": "view",
      "type": "function"
    },
    {
      "inputs": [
        {
          "internalType": "uint256",
          "name": "_marketId",
          "type": "uint256"
        },
        {
          "internalType": "address",
          "name": "_user",
          "type": "address"
        }
      ],
      "name": "getRefundAmount",
      "outputs": [
        {
          "internalType": "uint256",
          "name": "yesRefund",
          "type": "uint256"
        },
        {
          "internalType": "uint256",
          "name": "noRefund",
          "type": "uint256"
        },
        {
          "internalType": "uint256",
          "name": "total",
          "type": "uint256"
        },
        {
          "internalType": "bool",
          "name": "alreadyClaimed",
          "type": "bool"
        }
      ],
      "stateMutability": "view",
      "type": "function"
    },
    {
      "inputs": [],
      "name": "getResolvedMarkets",
      "outputs": [
        {
          "components": [
            {
              "internalType": "uint256",
              "name": "marketId",
              "type": "uint256"
            },
            {
              "internalType": "string",
              "name": "question",
              "type": "string"
            },
            {
              "internalType": "uint256",
              "name": "endTime",
              "type": "uint256"
            },
            {
              "internalType": "uint256",
              "name": "resolutionDeadline",
              "type": "uint256"
            },
            {
              "internalType": "uint256",
              "name": "totalYes",
              "type": "uint256"
            },
            {
              "internalType": "uint256",
              "name": "totalNo",
              "type": "uint256"
            },
            {
              "internalType": "uint256",
              "name": "totalVolume",
              "type": "uint256"
            },
            {
              "internalType": "uint256",
              "name": "totalTrades",
              "type": "uint256"
            },
            {
              "internalType": "enum PredictionMarket.MarketStatus",
              "name": "status",
              "type": "uint8"
            },
            {
              "internalType": "bool",
              "name": "outcome",
              "type": "bool"
            },
            {
              "internalType": "address",
              "name": "creator",
              "type": "address"
            },
            {
              "internalType": "uint256",
              "name": "yesOdds",
              "type": "uint256"
            },
            {
              "internalType": "uint256",
              "name": "noOdds",
              "type": "uint256"
            },
            {
              "internalType": "uint8",
              "name": "category",
              "type": "uint8"
            }
          ],
          "internalType": "struct PredictionMarket.MarketSummary[]",
          "name": "list",
          "type": "tuple[]"
        }
      ],
      "stateMutability": "view",
      "type": "function"
    },
    {
      "inputs": [
        {
          "internalType": "uint256",
          "name": "_n",
          "type": "uint256"
        }
      ],
      "name": "getTopMarketsByTrades",
      "outputs": [
        {
          "components": [
            {
              "internalType": "uint256",
              "name": "marketId",
              "type": "uint256"
            },
            {
              "internalType": "string",
              "name": "question",
              "type": "string"
            },
            {
              "internalType": "uint256",
              "name": "endTime",
              "type": "uint256"
            },
            {
              "internalType": "uint256",
              "name": "resolutionDeadline",
              "type": "uint256"
            },
            {
              "internalType": "uint256",
              "name": "totalYes",
              "type": "uint256"
            },
            {
              "internalType": "uint256",
              "name": "totalNo",
              "type": "uint256"
            },
            {
              "internalType": "uint256",
              "name": "totalVolume",
              "type": "uint256"
            },
            {
              "internalType": "uint256",
              "name": "totalTrades",
              "type": "uint256"
            },
            {
              "internalType": "enum PredictionMarket.MarketStatus",
              "name": "status",
              "type": "uint8"
            },
            {
              "internalType": "bool",
              "name": "outcome",
              "type": "bool"
            },
            {
              "internalType": "address",
              "name": "creator",
              "type": "address"
            },
            {
              "internalType": "uint256",
              "name": "yesOdds",
              "type": "uint256"
            },
            {
              "internalType": "uint256",
              "name": "noOdds",
              "type": "uint256"
            },
            {
              "internalType": "uint8",
              "name": "category",
              "type": "uint8"
            }
          ],
          "internalType": "struct PredictionMarket.MarketSummary[]",
          "name": "top",
          "type": "tuple[]"
        }
      ],
      "stateMutability": "view",
      "type": "function"
    },
    {
      "inputs": [
        {
          "internalType": "uint256",
          "name": "_n",
          "type": "uint256"
        }
      ],
      "name": "getTopMarketsByVolume",
      "outputs": [
        {
          "components": [
            {
              "internalType": "uint256",
              "name": "marketId",
              "type": "uint256"
            },
            {
              "internalType": "string",
              "name": "question",
              "type": "string"
            },
            {
              "internalType": "uint256",
              "name": "endTime",
              "type": "uint256"
            },
            {
              "internalType": "uint256",
              "name": "resolutionDeadline",
              "type": "uint256"
            },
            {
              "internalType": "uint256",
              "name": "totalYes",
              "type": "uint256"
            },
            {
              "internalType": "uint256",
              "name": "totalNo",
              "type": "uint256"
            },
            {
              "internalType": "uint256",
              "name": "totalVolume",
              "type": "uint256"
            },
            {
              "internalType": "uint256",
              "name": "totalTrades",
              "type": "uint256"
            },
            {
              "internalType": "enum PredictionMarket.MarketStatus",
              "name": "status",
              "type": "uint8"
            },
            {
              "internalType": "bool",
              "name": "outcome",
              "type": "bool"
            },
            {
              "internalType": "address",
              "name": "creator",
              "type": "address"
            },
            {
              "internalType": "uint256",
              "name": "yesOdds",
              "type": "uint256"
            },
            {
              "internalType": "uint256",
              "name": "noOdds",
              "type": "uint256"
            },
            {
              "internalType": "uint8",
              "name": "category",
              "type": "uint8"
            }
          ],
          "internalType": "struct PredictionMarket.MarketSummary[]",
          "name": "top",
          "type": "tuple[]"
        }
      ],
      "stateMutability": "view",
      "type": "function"
    },
    {
      "inputs": [],
      "name": "getTotalVolume",
      "outputs": [
        {
          "internalType": "uint256",
          "name": "",
          "type": "uint256"
        }
      ],
      "stateMutability": "view",
      "type": "function"
    },
    {
      "inputs": [
        {
          "internalType": "address",
          "name": "_user",
          "type": "address"
        }
      ],
      "name": "getUserAllClaimInfo",
      "outputs": [
        {
          "components": [
            {
              "internalType": "uint256",
              "name": "marketId",
              "type": "uint256"
            },
            {
              "internalType": "string",
              "name": "question",
              "type": "string"
            },
            {
              "internalType": "bool",
              "name": "outcome",
              "type": "bool"
            },
            {
              "internalType": "uint256",
              "name": "userYesBet",
              "type": "uint256"
            },
            {
              "internalType": "uint256",
              "name": "userNoBet",
              "type": "uint256"
            },
            {
              "internalType": "uint256",
              "name": "userWinningBet",
              "type": "uint256"
            },
            {
              "internalType": "uint256",
              "name": "estimatedPayout",
              "type": "uint256"
            },
            {
              "internalType": "bool",
              "name": "hasClaimed",
              "type": "bool"
            },
            {
              "internalType": "bool",
              "name": "isEligible",
              "type": "bool"
            },
            {
              "internalType": "uint256",
              "name": "resolvedAt",
              "type": "uint256"
            },
            {
              "internalType": "enum PredictionMarket.MarketStatus",
              "name": "status",
              "type": "uint8"
            },
            {
              "internalType": "uint8",
              "name": "category",
              "type": "uint8"
            }
          ],
          "internalType": "struct PredictionMarket.UserClaimInfo[]",
          "name": "claims",
          "type": "tuple[]"
        }
      ],
      "stateMutability": "view",
      "type": "function"
    },
    {
      "inputs": [
        {
          "internalType": "uint256",
          "name": "_marketId",
          "type": "uint256"
        },
        {
          "internalType": "address",
          "name": "_user",
          "type": "address"
        }
      ],
      "name": "getUserClaimInfo",
      "outputs": [
        {
          "components": [
            {
              "internalType": "uint256",
              "name": "marketId",
              "type": "uint256"
            },
            {
              "internalType": "string",
              "name": "question",
              "type": "string"
            },
            {
              "internalType": "bool",
              "name": "outcome",
              "type": "bool"
            },
            {
              "internalType": "uint256",
              "name": "userYesBet",
              "type": "uint256"
            },
            {
              "internalType": "uint256",
              "name": "userNoBet",
              "type": "uint256"
            },
            {
              "internalType": "uint256",
              "name": "userWinningBet",
              "type": "uint256"
            },
            {
              "internalType": "uint256",
              "name": "estimatedPayout",
              "type": "uint256"
            },
            {
              "internalType": "bool",
              "name": "hasClaimed",
              "type": "bool"
            },
            {
              "internalType": "bool",
              "name": "isEligible",
              "type": "bool"
            },
            {
              "internalType": "uint256",
              "name": "resolvedAt",
              "type": "uint256"
            },
            {
              "internalType": "enum PredictionMarket.MarketStatus",
              "name": "status",
              "type": "uint8"
            },
            {
              "internalType": "uint8",
              "name": "category",
              "type": "uint8"
            }
          ],
          "internalType": "struct PredictionMarket.UserClaimInfo",
          "name": "info",
          "type": "tuple"
        }
      ],
      "stateMutability": "view",
      "type": "function"
    },
    {
      "inputs": [
        {
          "internalType": "address",
          "name": "_user",
          "type": "address"
        }
      ],
      "name": "getUserMarketIds",
      "outputs": [
        {
          "internalType": "uint256[]",
          "name": "",
          "type": "uint256[]"
        }
      ],
      "stateMutability": "view",
      "type": "function"
    },
    {
      "inputs": [
        {
          "internalType": "address",
          "name": "_user",
          "type": "address"
        }
      ],
      "name": "getUserPendingRefunds",
      "outputs": [
        {
          "components": [
            {
              "internalType": "uint256",
              "name": "marketId",
              "type": "uint256"
            },
            {
              "internalType": "string",
              "name": "question",
              "type": "string"
            },
            {
              "internalType": "string",
              "name": "reason",
              "type": "string"
            },
            {
              "internalType": "uint256",
              "name": "cancelledAt",
              "type": "uint256"
            },
            {
              "internalType": "uint256",
              "name": "yesRefund",
              "type": "uint256"
            },
            {
              "internalType": "uint256",
              "name": "noRefund",
              "type": "uint256"
            },
            {
              "internalType": "uint256",
              "name": "total",
              "type": "uint256"
            },
            {
              "internalType": "uint8",
              "name": "category",
              "type": "uint8"
            }
          ],
          "internalType": "struct PredictionMarket.PendingRefund[]",
          "name": "refunds",
          "type": "tuple[]"
        }
      ],
      "stateMutability": "view",
      "type": "function"
    },
    {
      "inputs": [
        {
          "internalType": "address",
          "name": "_user",
          "type": "address"
        }
      ],
      "name": "getUserPositions",
      "outputs": [
        {
          "components": [
            {
              "internalType": "uint256",
              "name": "marketId",
              "type": "uint256"
            },
            {
              "internalType": "uint256",
              "name": "yesAmount",
              "type": "uint256"
            },
            {
              "internalType": "uint256",
              "name": "noAmount",
              "type": "uint256"
            },
            {
              "internalType": "bool",
              "name": "claimed",
              "type": "bool"
            }
          ],
          "internalType": "struct PredictionMarket.UserPosition[]",
          "name": "positions",
          "type": "tuple[]"
        }
      ],
      "stateMutability": "view",
      "type": "function"
    },
    {
      "inputs": [
        {
          "internalType": "address",
          "name": "_user",
          "type": "address"
        }
      ],
      "name": "getUserStats",
      "outputs": [
        {
          "internalType": "uint256",
          "name": "totalBetVolume",
          "type": "uint256"
        },
        {
          "internalType": "uint256",
          "name": "marketsEntered",
          "type": "uint256"
        },
        {
          "internalType": "uint256",
          "name": "winningsClaimed_",
          "type": "uint256"
        },
        {
          "internalType": "uint256",
          "name": "unclaimedWinnings",
          "type": "uint256"
        },
        {
          "internalType": "uint256",
          "name": "pendingRefunds",
          "type": "uint256"
        }
      ],
      "stateMutability": "view",
      "type": "function"
    },
    {
      "inputs": [],
      "name": "getVolumeStats",
      "outputs": [
        {
          "internalType": "uint256",
          "name": "totalVolume",
          "type": "uint256"
        },
        {
          "internalType": "uint256",
          "name": "totalTrades",
          "type": "uint256"
        },
        {
          "internalType": "uint256",
          "name": "totalFeesEarned",
          "type": "uint256"
        },
        {
          "internalType": "uint256",
          "name": "openVolume",
          "type": "uint256"
        },
        {
          "internalType": "uint256",
          "name": "openMarkets",
          "type": "uint256"
        }
      ],
      "stateMutability": "view",
      "type": "function"
    },
    {
      "inputs": [],
      "name": "globalCancelledCount",
      "outputs": [
        {
          "internalType": "uint256",
          "name": "",
          "type": "uint256"
        }
      ],
      "stateMutability": "view",
      "type": "function"
    },
    {
      "inputs": [],
      "name": "globalCancelledVolume",
      "outputs": [
        {
          "internalType": "uint256",
          "name": "",
          "type": "uint256"
        }
      ],
      "stateMutability": "view",
      "type": "function"
    },
    {
      "inputs": [],
      "name": "globalClaimedVolume",
      "outputs": [
        {
          "internalType": "uint256",
          "name": "",
          "type": "uint256"
        }
      ],
      "stateMutability": "view",
      "type": "function"
    },
    {
      "inputs": [],
      "name": "globalRefundedVolume",
      "outputs": [
        {
          "internalType": "uint256",
          "name": "",
          "type": "uint256"
        }
      ],
      "stateMutability": "view",
      "type": "function"
    },
    {
      "inputs": [],
      "name": "globalResolvedCount",
      "outputs": [
        {
          "internalType": "uint256",
          "name": "",
          "type": "uint256"
        }
      ],
      "stateMutability": "view",
      "type": "function"
    },
    {
      "inputs": [],
      "name": "globalTotalFeesEarned",
      "outputs": [
        {
          "internalType": "uint256",
          "name": "",
          "type": "uint256"
        }
      ],
      "stateMutability": "view",
      "type": "function"
    },
    {
      "inputs": [],
      "name": "globalTotalTrades",
      "outputs": [
        {
          "internalType": "uint256",
          "name": "",
          "type": "uint256"
        }
      ],
      "stateMutability": "view",
      "type": "function"
    },
    {
      "inputs": [],
      "name": "globalTotalVolume",
      "outputs": [
        {
          "internalType": "uint256",
          "name": "",
          "type": "uint256"
        }
      ],
      "stateMutability": "view",
      "type": "function"
    },
    {
      "inputs": [],
      "name": "globalUniqueTraders",
      "outputs": [
        {
          "internalType": "uint256",
          "name": "",
          "type": "uint256"
        }
      ],
      "stateMutability": "view",
      "type": "function"
    },
    {
      "inputs": [
        {
          "internalType": "uint256",
          "name": "_marketId",
          "type": "uint256"
        },
        {
          "internalType": "address",
          "name": "_user",
          "type": "address"
        }
      ],
      "name": "hasUserBet",
      "outputs": [
        {
          "internalType": "bool",
          "name": "",
          "type": "bool"
        }
      ],
      "stateMutability": "view",
      "type": "function"
    },
    {
      "inputs": [
        {
          "internalType": "uint256",
          "name": "",
          "type": "uint256"
        }
      ],
      "name": "isCancelled",
      "outputs": [
        {
          "internalType": "bool",
          "name": "",
          "type": "bool"
        }
      ],
      "stateMutability": "view",
      "type": "function"
    },
    {
      "inputs": [],
      "name": "marketCount",
      "outputs": [
        {
          "internalType": "uint256",
          "name": "",
          "type": "uint256"
        }
      ],
      "stateMutability": "view",
      "type": "function"
    },
    {
      "inputs": [
        {
          "internalType": "uint256",
          "name": "",
          "type": "uint256"
        }
      ],
      "name": "markets",
      "outputs": [
        {
          "internalType": "string",
          "name": "question",
          "type": "string"
        },
        {
          "internalType": "uint256",
          "name": "endTime",
          "type": "uint256"
        },
        {
          "internalType": "uint256",
          "name": "resolutionDeadline",
          "type": "uint256"
        },
        {
          "internalType": "uint256",
          "name": "totalYes",
          "type": "uint256"
        },
        {
          "internalType": "uint256",
          "name": "totalNo",
          "type": "uint256"
        },
        {
          "internalType": "uint256",
          "name": "totalTrades",
          "type": "uint256"
        },
        {
          "internalType": "enum PredictionMarket.MarketStatus",
          "name": "status",
          "type": "uint8"
        },
        {
          "internalType": "bool",
          "name": "outcome",
          "type": "bool"
        },
        {
          "internalType": "address",
          "name": "creator",
          "type": "address"
        },
        {
          "internalType": "uint8",
          "name": "category",
          "type": "uint8"
        }
      ],
      "stateMutability": "view",
      "type": "function"
    },
    {
      "inputs": [
        {
          "internalType": "uint256",
          "name": "",
          "type": "uint256"
        },
        {
          "internalType": "address",
          "name": "",
          "type": "address"
        }
      ],
      "name": "noBets",
      "outputs": [
        {
          "internalType": "uint256",
          "name": "",
          "type": "uint256"
        }
      ],
      "stateMutability": "view",
      "type": "function"
    },
    {
      "inputs": [],
      "name": "owner",
      "outputs": [
        {
          "internalType": "address",
          "name": "",
          "type": "address"
        }
      ],
      "stateMutability": "view",
      "type": "function"
    },
    {
      "inputs": [
        {
          "internalType": "uint256",
          "name": "_marketId",
          "type": "uint256"
        },
        {
          "internalType": "bool",
          "name": "_side",
          "type": "bool"
        }
      ],
      "name": "placePosition",
      "outputs": [],
      "stateMutability": "payable",
      "type": "function"
    },
    {
      "inputs": [
        {
          "internalType": "uint256",
          "name": "_marketId",
          "type": "uint256"
        },
        {
          "internalType": "bool",
          "name": "_outcome",
          "type": "bool"
        }
      ],
      "name": "resolveMarket",
      "outputs": [],
      "stateMutability": "nonpayable",
      "type": "function"
    },
    {
      "inputs": [
        {
          "internalType": "uint256",
          "name": "",
          "type": "uint256"
        }
      ],
      "name": "resolvedAt",
      "outputs": [
        {
          "internalType": "uint256",
          "name": "",
          "type": "uint256"
        }
      ],
      "stateMutability": "view",
      "type": "function"
    },
    {
      "inputs": [
        {
          "internalType": "uint256",
          "name": "_feeBps",
          "type": "uint256"
        }
      ],
      "name": "setFee",
      "outputs": [],
      "stateMutability": "nonpayable",
      "type": "function"
    },
    {
      "inputs": [
        {
          "internalType": "address",
          "name": "_to",
          "type": "address"
        }
      ],
      "name": "withdrawFees",
      "outputs": [],
      "stateMutability": "nonpayable",
      "type": "function"
    },
    {
      "inputs": [
        {
          "internalType": "uint256",
          "name": "",
          "type": "uint256"
        },
        {
          "internalType": "address",
          "name": "",
          "type": "address"
        }
      ],
      "name": "yesBets",
      "outputs": [
        {
          "internalType": "uint256",
          "name": "",
          "type": "uint256"
        }
      ],
      "stateMutability": "view",
      "type": "function"
    },
    {
      "stateMutability": "payable",
      "type": "receive"
    }
  ],
  "bytecode": "0x60a0806040523461004b573360805260196000556149409081610051823960805181818161150c015281816118b401528181611f4d0152818161240d0152818161293d01526135920152f35b600080fdfe6080806040526004361015610054575b50361561001b57600080fd5b60405162461bcd60e51b81526020600482015260116024820152702ab9b290383630b1b2a837b9b4ba34b7b760791b6044820152606490fd5b60003560e01c908163059cf04314613ba8575080630b9d98e9146103b85780630ccb2ec81461398d578063120aa87714613940578063126c4166146138c6578063128e6988146138a8578063143f2a88146136e6578063155e4b821461369e578063164e68de146135735780631659f9f3146133dd578063188212b5146133bf57806319ce75881461300057806324a9d85314612fe25780632a6bc2dd14612e20578063354c619914612dd8578063456051f11461290357806345cfeb7c146128d75780634b8764a5146127f45780634e43603a146126095780634fcc1def146125ed57806357bde446146123eb5780635b7baf64146122755780636540742f14612253578063677bd9ff14612018578063682c205814611ffa57806369fe0e2d14611f335780636b4169c314611e275780636bc98ba314611e0a578063732eb0f014611dec578063734c854414611dce5780637b340a6414611ad857806380968d4814611a9857806383aca3ec1461194e5780638443b2331461190157806387412a60146118e35780638da5cb5b1461189e578063921e3f18146114c3578063947f45fb146114595780639c90d9331461143b578063a5abcb591461141d578063a95f028a14611362578063a95f73fd14611336578063aca0117414611257578063aeaa5a0d14610ede578063b1283e7714610e1d578063b1724b4614610dfe578063bbc1b7fe14610de0578063c14d6d9714610cab578063c31f1b9f14610c88578063c625708814610c6a578063c7334bb314610c4e578063cdf92c2714610c1d578063d4ce3e981461088e578063d55be8c614610871578063d73792a914610853578063dd4e013014610665578063df5a060d146103f4578063ec979082146103d6578063f02a2a4a146103b85763f53bba09146102f5573861000f565b346103b35760403660031901126103b3576080600435610313613c75565b81600052600760205261032d60ff60406000205416614416565b60008281526004602090815260408083206001600160a01b03851680855290835281842054868552600584528285209185529252909120549092909161037383856140e7565b91600052600660205260406000209060018060a01b031660005260205260ff60406000205416916040519384526020840152604083015215156060820152f35b600080fd5b346103b35760003660031901126103b3576020601454604051908152f35b346103b35760003660031901126103b3576020600254604051908152f35b346103b35760403660031901126103b357600435610410613c75565b610418614719565b5081151580610659575b61042b906140f4565b81600052600760205261044660ff6040600020541615614138565b81600052600360205260406000209060068201549160ff831691600383101561064357600183036105fe5760008581526004602090815260408083206001600160a01b0385168085529083528184205489855260058452828520918552925290912054600886901c60ff16919082156105f85781905b83156105ed576003860154925b84156105e2576004870154955b60009484151597886105ac575b50508a600052600660205260406000209060018060a01b031660005260205260ff6040600020541694866105a3575b8a6000526009602052604060002054976040519b61052f8d613f59565b8c5261053a90613f96565b60208c0152151560408b015260608a0152608089015260a088015260c0870152151560e0860152151561010085015261012084015261057d90610140840161424a565b60b01c60ff166101608201526040518091602082526020820161059f9161403a565b0390f35b85159650610512565b91955090806105c1575050825b938b806104e3565b6105dd916105d26105d792876143c2565b6143f6565b846140e7565b6105b9565b6003870154956104d6565b6004860154926104c9565b806104bc565b60405162461bcd60e51b815260206004820152601760248201527f4d61726b6574206e6f74207265736f6c766564207965740000000000000000006044820152606490fd5b634e487b7160e01b600052602160045260246000fd5b50600254821115610422565b346103b35760203660031901126103b35760043560025480821161084b575b61068d826141fa565b90600092600060015b838111156106b4576040516020808252819061059f90820188613d93565b80600052600760205260ff604060002054166107ce578060005260036020528086604060002060ff6003820154916004810154926106f284826140e7565b936106fd8183614773565b929091600185015491600286015460058701549361072e6006890154986040519d8e61072881613eea565b52613f96565b60208d015260408c015260608b015260808a015260a08901528560c089015260e0880152610762848416610100890161424a565b600883901c84161515610120880152601083901c6001600160a01b031661014088015261016087015261018086015260b01c166101a084015285841161080c57505060001982018281116107f6576107c5916107be8289614279565b5286614279565b508281146107dc575b6107d7906140d8565b610696565b9450506107d76107ec82856148b0565b91909590506107ce565b634e487b7160e01b600052601160045260246000fd5b1161081c575b506107d7906140d8565b8291965061082d6108349387614279565b5284614279565b506107d761084282856148b0565b91909590610812565b905080610684565b346103b35760003660031901126103b3576020604051620186a08152f35b346103b35760003660031901126103b35760206040516109c48152f35b346103b35760203660031901126103b3576108a7613c5f565b6001600160a01b0381166000908152601260205260408120805491929190835b828110610ba257506108d88461417b565b936108e66040519586613f75565b8085526108f5601f199161417b565b0160005b818110610b855750506001600160a01b0390921691600090815b83811061098257856040518091602082016020835281518091526040830190602060408260051b8601019301916000905b82821061095357505050500390f35b919360019193955060206109728192603f198a8203018652885161403a565b9601920192018594939192610944565b61098c818361434e565b90549060031b1c9283600052600760205260ff60406000205416610b7b57836000526003602052604060002093600685015490600360ff8316101561064357600160ff831603610b6f578060005260046020526040806000206000908a825260205220548160005260056020526040806000206000908b8252602052205460ff8460081c169081600014610b6957825b8215610b5e5760038a0154915b8315610b535760048b0154945b8d6000948415159788610b1b575b5050604060ff918960005260066020528160002060009182526020522054169486610b12575b876000526009602052604060002054976040519d8e91610a8983613f59565b8252610a9490613f96565b602090910152151560408d015260608c015260808b015260a08a015260c0890152151560e08801521515610100870152610120860152610adb60ff8216610140870161424a565b60b01c60ff1661016085015280610af1906140d8565b93610afc8289614279565b52610b079087614279565b506001905b01610913565b85159650610a6a565b9195509080610b3357505060ff6040845b9591610a44565b610b4e610b4860ff936105d2604094896143c2565b866140e7565b610b2c565b60038b015494610a36565b60048a015491610a29565b80610a1c565b50509250600190610b0c565b9250600190610b0c565b602090610b93959495614719565b828289010152019392936108f9565b610baf818395949561434e565b90549060031b1c80600052600760205260ff60406000205416159081610bf5575b50610be1575b6001019291926108c7565b93610bed6001916140d8565b949050610bd6565b9050600052600360205260ff6006604060002001541660038110156106435760011486610bd0565b346103b35760203660031901126103b3576004356000526007602052602060ff604060002054166040519015158152f35b346103b35760003660031901126103b357602060405160068152f35b346103b35760003660031901126103b3576020601954604051908152f35b346103b35760003660031901126103b3576020604051670de0b6b3a76400008152f35b346103b35760203660031901126103b35761059f610d5060ff600435610ccf614192565b5080151580610dd4575b610ce2906140f4565b806000526007602052610cfc826040600020541615614138565b80600052600360205260406000206003810154600482015491610d1f83836140e7565b610d298484614773565b9490936001840154600285015490610d5760058701549660068101549a6040519d8e613eea565b8d52613f96565b60208c015260408b015260608a0152608089015260a088015260c087015260e0860152610d8a848416610100870161424a565b838360081c16151561012086015260018060a01b038360101c1661014086015261016085015261018084015260b01c166101a0820152604051918291602083526020830190613cd9565b50600254811115610cd9565b346103b35760003660031901126103b3576020601a54604051908152f35b346103b35760003660031901126103b35760206040516301e133808152f35b346103b35760203660031901126103b3576004356000526003602052610e856040600020610e4a81613f96565b9060ff600182015491600281015490600381015460048201549060066005840154930154936040519889986101408a526101408a0190613c8b565b96602089015260408801526060870152608086015260a0850152610eae60c08501838316613ccc565b600881901c8216151560e0850152601081901c6001600160a01b031661010085015260b01c166101208301520390f35b60403660031901126103b357600435610ef5613e85565b906001601d54610f0860ff8216156142d2565b60ff191617601d558015158061124b575b610f22906140f4565b806000526007602052610f3d60ff6040600020541615614138565b806000526003602052604060002060ff6006820154166003811015610643576112145760018101544210156111d75766038d7ea4c68000341061119e57620186a0610f8a600054346143c2565b0490610fb1610f99833461428d565b92610fa6816001546140e7565b6001556016546140e7565b601655831561115957826000526004602052604060002060018060a01b0333166000526020526040600020610fe78382546140e7565b905560038101610ff88382546140e7565b90555b6005810161100981546140d8565b9055611017826014546140e7565b6014556110256015546140d8565b601555600083815260136020908152604080832033845290915290205460ff16156110b4575b60046003820154910154916110608383614773565b916040519615158752602087015260408601526060850152608084015260a08301527f39030e804a1c2a4713d5e4cfee4b24625c6ccea154822bcce5e09c6798f4086360c03393a3601d805460ff19169055005b60008381526013602090815260408083203384528252808320805460ff19166001179055601290915290208054600160401b811015611143576111018161111a936001889401815561434e565b90919082549060031b91821b91600019901b1916179055565b33600052601260205260016040600020540361104b5761113b601a546140d8565b601a5561104b565b634e487b7160e01b600052604160045260246000fd5b826000526005602052604060002060018060a01b03331660005260205260406000206111868382546140e7565b9055600481016111978382546140e7565b9055610ffb565b60405162461bcd60e51b815260206004820152601160248201527010995b1bddc81b5a5b9a5b5d5b4818995d607a1b6044820152606490fd5b60405162461bcd60e51b815260206004820152601560248201527410995d1d1a5b99c81dda5b991bddc818db1bdcd959605a1b6044820152606490fd5b60405162461bcd60e51b815260206004820152600f60248201526e26b0b935b2ba103737ba1037b832b760891b6044820152606490fd5b50600254811115610f19565b346103b35760203660031901126103b35761059f60043561127661430f565b5080600052600760205261129160ff60406000205416614416565b6000818152600b602090815260408083206008835281842054600c845282852054600d855283862054600e865284872054600f87528588206011909752968590205494519760ff90951696611318969590949193916112fa916112f38b613f06565b8a52613f96565b602089015260408801526060870152608086015260a0850152613f96565b60c083015260e0820152604051918291602083526020830190613dec565b346103b35760203660031901126103b35760043560005260096020526020604060002054604051908152f35b346103b35760203660031901126103b357600435600081151580611411575b61138a906140f4565b8181526007602052604081205460ff16156113e9575080600052600c60205260406000205490600052600d6020526040600020549061059f6113cc83836140e7565b604051938493846040919493926060820195825260208201520152565b6040918152600360205220600460038201549101549061059f61140c83836140e7565b6113cc565b50600254821115611381565b346103b35760003660031901126103b3576020601c54604051908152f35b346103b35760003660031901126103b3576020601754604051908152f35b346103b35760603660031901126103b35760206114af60043561147a613e85565b811515806114b7575b61148c906140f4565b81600052600784526114a660ff6040600020541615614138565b60443591614693565b604051908152f35b50600254821115611483565b346103b35760603660031901126103b3576004356001600160401b0381116103b3576114f3903690600401613e58565b602435916044359160ff83168093036103b35761153a337f00000000000000000000000000000000000000000000000000000000000000006001600160a01b03161461429a565b8015611868578315611833576301e1338084116117fa5760068310156117c2576115736115686002546140d8565b9485600255426140e7565b6203f4808101938482116107f65760405161158d81613f3d565b61159684614678565b6115a36040519182613f75565b84815236858701116103b357848660208301376000602086830101528152866020820184815260408301978852606083019260008452608081016000815260a08201906000825260c08301956000875260e084019b60008d526101008501953387526101208601978a89526000526003602052604060002095518051906001600160401b038211611143576116428261163c8a54613e94565b8a61437d565b602090601f831160011461175357918061167c9260069a999897969594600092611748575b50508160011b916000199060031b1c19161790565b86555b5160018601555160028501555160038401555160048301555160058201550192516003811015610643578354985161ffff1990991660ff9091161797151560081b61ff00169790971782557f79a66e9d2b60f0afba265f487558fcb240a14303ba0c938345e54312c64fee4d96518254915162010000600160b81b031990921660109190911b62010000600160b01b03161760b09190911b60ff60b01b16179055604051606080825290948594611738928601916143d5565b91602084015260408301520390a2005b015190503880611667565b90601f1983169189600052816000209260005b8181106117aa575091600193918560069c9b9a999897969410611791575b505050811b01865561167f565b015160001960f88460031b161c19169055388080611784565b92936020600181928786015181550195019301611766565b60405162461bcd60e51b815260206004820152601060248201526f496e76616c69642063617465676f727960801b6044820152606490fd5b60405162461bcd60e51b81526020600482015260116024820152704475726174696f6e20746f6f206c6f6e6760781b6044820152606490fd5b60405162461bcd60e51b815260206004820152600d60248201526c2d32b93790323ab930ba34b7b760991b6044820152606490fd5b60405162461bcd60e51b815260206004820152600e60248201526d22b6b83a3c9038bab2b9ba34b7b760911b6044820152606490fd5b346103b35760003660031901126103b3576040517f00000000000000000000000000000000000000000000000000000000000000006001600160a01b03168152602090f35b346103b35760003660031901126103b3576020601654604051908152f35b346103b35760403660031901126103b35761191a613c75565b600435600052601360205260406000209060018060a01b0316600052602052602060ff604060002054166040519015158152f35b346103b35760003660031901126103b357600a5461196b816141fa565b600a549160005b81811061198f576040516020808252819061059f90820186613d93565b600084821015611a845790610d5060ff82602085600a6001975220016040600091549182815260036020522060038101546004820154916119d083836140e7565b6119da8484614773565b9490938a840154600285015490611a0060058701549660068101549a6040519d8e613eea565b60208c015260408b015260608a0152608089015260a088015260c087015260e0860152611a33848416610100870161424a565b838360081c161515610120860152868060a01b038360101c1661014086015261016085015261018084015260b01c166101a0820152611a728286614279565b52611a7d8185614279565b5001611972565b634e487b7160e01b81526032600452602490fd5b346103b35760403660031901126103b357611ace611aba602435600435614497565b604051928392604084526040840190613d93565b9060208301520390f35b346103b35760203660031901126103b3576004356003811015806103b3576002805490831491600060015b8284821115611d24575050611b17906141fa565b9260019160005b84841115611b3c576040516020808252819061059f90820189613d93565b81610643578215611bc15783600052600760205260ff6040600020541615611bb757611bab8185611b70611bb1948a614279565b51526002610100611b81838b614279565b51015285600052601160205260ff604060002054166101a0611ba3838b614279565b5101526140d8565b936140d8565b92611b1e565b92611bb1906140d8565b9280600052600760205260ff604060002054168015611ce3575b611cda578060005260036020526040600020936003850154600486015490611c0382826140e7565b611c0d8383614773565b92909160018a01549460028b01549260058c01549360068d015497604051809e611c3682613eea565b8c8252611c4290613f96565b60208201526040015260608d015260808c015260a08b015260c08a015260e0890152611c7560ff84166101008a0161424a565b8260081c60ff161515610120890152600160a01b600190038360101c1661014089015261016088015261018087015260b01c60ff166101a086015280611cba906140d8565b94611cc58289614279565b52611cd09087614279565b50611bb1906140d8565b611bb1906140d8565b50809150600052600360205260ff60066040600020015416906000916003811015611d1057871415611bdb565b634e487b7160e01b83526021600452602483fd5b610643578415611d685780600052600760205260ff60406000205416611d53575b611d4e906140d8565b611b03565b90611d60611d4e916140d8565b919050611d45565b80600052600760205260ff604060002054161580611d8e575b611d5357611d4e906140d8565b50809250600052600360205260ff60066040600020015416916000926003811015611dba578614611d81565b634e487b7160e01b84526021600452602484fd5b346103b35760003660031901126103b35760206040516203f4808152f35b346103b35760003660031901126103b3576020601554604051908152f35b346103b35760003660031901126103b35760206040516127108152f35b346103b35760003660031901126103b3576000610120604051611e4981613f3d565b8281528260208201528260408201528260608201528260808201528260a08201528260c08201528260e082015282610100820152015261014060025460175460185460145460155460165460195491601a5493601b5495601c5497610120604051611eb381613f3d565b8b81526020810192835260408101938452606081019485526080810195865260a0810196875260c0810197885260e081019889526101008101998a5201988952604051998a525160208a01525160408901525160608801525160808701525160a08601525160c08501525160e08401525161010083015251610120820152f35b346103b35760203660031901126103b357600435611f7b337f00000000000000000000000000000000000000000000000000000000000000006001600160a01b03161461429a565b6109c48111611fb5576020817f8c4d35e54a3f2ef1134138fd8ea3daee6a3c89e10d2665996babdf70261e2c7692600055604051908152a1005b60405162461bcd60e51b815260206004820152601760248201527f45786365656473206d617820666565206f6620322e35250000000000000000006044820152606490fd5b346103b35760003660031901126103b3576020600154604051908152f35b346103b35760203660031901126103b3576004356001601d5461203e60ff8216156142d2565b60ff191617601d5580151580612247575b612058906140f4565b80600052600760205261207360ff6040600020541615614138565b8060005260036020526040600020600681015460ff811660038110156106435760010361220c5760008381526006602090815260408083203384529091529020546120c19060ff1615614459565b60009060081c60ff16156121de5750816000526004602052604060002060018060a01b03331660005260205260406000205490600460038201549101545b82156121a35780612185575050905b60008181526006602090815260408083203384529091529020805460ff19166001179055601b546121409083906140e7565b601b5561214d823361482c565b6040519182527f5380cf6fe903b40c6d5a9e0dfbca2f3a423f0a21520b4d5947ed5169bdba946d60203393a3601d805460ff19169055005b82916105d26121979261219d956143c2565b906140e7565b9061210e565b60405162461bcd60e51b81526020600482015260136024820152722737903bb4b73734b733903837b9b4ba34b7b760691b6044820152606490fd5b808360409252600560205281812060018060a01b0333168252602052205490600360048201549101546120ff565b60405162461bcd60e51b815260206004820152601360248201527213585c9ad95d081b9bdd081c995cdbdb1d9959606a1b6044820152606490fd5b5060025481111561204f565b346103b35760003660031901126103b357602060405166038d7ea4c680008152f35b346103b35760203660031901126103b3576004356001601d5461229b60ff8216156142d2565b60ff191617601d558060005260076020526122bd60ff60406000205416614416565b60008181526006602090815260408083203384529091529020546122e49060ff1615614459565b600081815260046020908152604080832033808552908352818420548585526005845282852091855292529091205490919061232081846140e7565b80156123b2577f741dbc3d220701dc9db59286031a879277af10f110ca3b1a14b15256e0dce9a591836000526006602052604060002060018060a01b0333166000526020526040600020600160ff1982541617905561238182601c546140e7565b601c5561238e823361482c565b6040805195865260208601919091528401523392606090a3601d805460ff19169055005b60405162461bcd60e51b8152602060048201526011602482015270139bdd1a1a5b99c81d1bc81c99599d5b99607a1b6044820152606490fd5b346103b35760403660031901126103b357600435612407613e85565b61243b337f00000000000000000000000000000000000000000000000000000000000000006001600160a01b03161461429a565b811515806125e1575b61244d906140f4565b81600052600760205261246860ff6040600020541615614138565b8160005260036020526040600020906006820160ff8154166003811015610643576125a8576002830154421161253d57805461ffff191682151560081b61ff001617600117905582600052600960205242604060002055600a5490600160401b821015611143577f71b668670f5341cfcc8094e91b9c6beeb06cbc13cd608aa869b673d843fed0a9926125098561110185600160809701600a55600a61434e565b6125146017546140d8565b6017556004600382015491015490604051921515835260208301526040820152426060820152a2005b60405162461bcd60e51b815260206004820152603760248201527f5265736f6c7574696f6e2077696e646f7720686173207061737365642063616e60448201527f63656c2074686973206d61726b657420696e73746561640000000000000000006064820152608490fd5b60405162461bcd60e51b8152602060048201526011602482015270105b1c9958591e48199a5b985b1a5cd959607a1b6044820152606490fd5b50600254821115612444565b346103b35760003660031901126103b357602060405160198152f35b346103b35760203660031901126103b357612622613c5f565b6001600160a01b03166000818152601260205260408120805492829182918291825b87811061267f575050509061059f9291604051958695869192608093969594919660a084019784526020840152604083015260608201520152565b612689818361434e565b90549060031b1c968760005260046020526040806000206000908682526020522054908860005260056020526126d460408060002060009088825260205220549161219783856140e7565b9880600052600660205260ff6040806000206000908982526020522054166127df5780600052600760205260ff604060002054166127c7576000526003602052604060002091600683015460ff8116600381101561064357600114612742575b505050506001905b01612644565b60081c60ff169182156127bf5750915b81156127b4576003810154915b156127ab57600401545b82612775575b80612734565b916001939791612790938015600014612799575050906140e7565b9490898061276f565b82916105d261219792612197956143c2565b60030154612769565b60048101549161275f565b905091612752565b5096612197600193986127d9936140e7565b9561273c565b505050926127ee6001916140d8565b9361273c565b346103b35760003660031901126103b35760008060145490601554926016546001600254905b818111156128555750509061059f9291604051958695869192608093969594919660a084019784526020840152604083015260608201520152565b80600052600760205260ff604060002054166128ce57806000526003602052604060002060ff6006820154166003811015610643571561289f575b5061289a906140d8565b61281a565b9361219785600460036128b99599980154910154906140e7565b92600181018091116107f6579361289a612890565b61289a906140d8565b346103b35760203660031901126103b35760043560005260086020526020604060002054604051908152f35b346103b35760403660031901126103b3576004356024356001600160401b0381116103b357612936903690600401613e58565b9061296b337f00000000000000000000000000000000000000000000000000000000000000006001600160a01b03161461429a565b82151580612dcc575b61297d906140f4565b82600052600760205260ff60406000205416612d935782600052600360205260ff60066040600020015416600381101561064357612d4e578115612d175782600052600360205260406000209160038301546004840154600585015460ff60066129e688613f96565b97015460b01c16958760005260076020526040600020600160ff1982541617905587600052600860205242604060002055612a226018546140d8565b601855612a3a612a3284866140e7565b6019546140e7565b60195587600052600b6020526040600020908051906001600160401b03821161114357612a7182612a6b8554613e94565b8561437d565b602090601f8311600114612cb057612aa1929160009183612ca55750508160011b916000199060031b1c19161790565b90555b6000878152600c60209081526040808320869055600d8252808320859055600e825280832093909355600f9052206001600160401b03841161114357612af484612aee8354613e94565b8361437d565b600084601f8111600114612c425780612b2392600091612c37575b508160011b916000199060031b1c19161790565b90555b60105494600160401b86101561114357612b6d876111018860017f7b989a39559611c657e421c8476d3569b9b2c6c00382d9101806d014f70795d49a01601055601061434e565b86600052601160205260406000209060ff198254161790558560005260036020526000600660408220612ba08154613e94565b80612bf4575b508260018201558260028201558260038201558260048201558260058201550155612bde6040519485946080865260808601916143d5565b91602084015260408301524260608301520390a2005b601f8111600114612c0a57508281555b89612ba6565b81845260208420612c2691601f0160051c810190600101614366565b808352826020812081835555612c04565b90508701358a612b0f565b50818152602081209085601f198116825b818110612c8a575010612c70575b5050600184811b019055612b26565b860135600019600387901b60f8161c191690558780612c61565b89840135855560019094019360209384019389935001612c53565b015190508b80611667565b90601f1983169184600052816000209260005b818110612cff5750908460019594939210612ce6575b505050811b019055612aa4565b015160001960f88460031b161c191690558a8080612cd9565b92936020600181928786015181550195019301612cc3565b60405162461bcd60e51b815260206004820152600f60248201526e1499585cdbdb881c995c5d5a5c9959608a1b6044820152606490fd5b60405162461bcd60e51b815260206004820152601f60248201527f43616e6e6f742063616e63656c2061207265736f6c766564206d61726b6574006044820152606490fd5b60405162461bcd60e51b8152602060048201526011602482015270105b1c9958591e4818d85b98d95b1b1959607a1b6044820152606490fd5b50600254831115612974565b346103b35760403660031901126103b357612df1613c75565b600435600052600460205260406000209060018060a01b03166000526020526020604060002054604051908152f35b346103b35760203660031901126103b357612e39613c5f565b6001600160a01b038116600090815260126020526040902080549091612e5e8261417b565b92612e6c6040519485613f75565b828452601f19612e7b8461417b565b0160005b818110612fa95750506001600160a01b039091169060005b838110612f07578460405180916020820160208352815180915260206040840192019060005b818110612ecb575050500390f35b91935091602060806001926060875180518352848101518584015260408101516040840152015115156060820152019401910191849392612ebd565b80612f146001928461434e565b90549060031b1c8060005260046020526040806000206000908782526020522054816000526005602052604080600020600090888252602052205482600052600660205260ff6040806000206000908a82526020522054169160405193612f7a85613f22565b84526020840152604083015215156060820152612f978288614279565b52612fa28187614279565b5001612e97565b602090604095949551612fbb81613f22565b60008152600083820152600060408201526000606082015282828901015201939293612e7f565b346103b35760003660031901126103b3576020600054604051908152f35b346103b35760203660031901126103b357613019613c5f565b6001600160a01b03811660009081526012602052604081208054919290835b8381106132f557506130498461417b565b936130576040519586613f75565b808552613066601f199161417b565b0160005b8181106132a05750506001600160a01b0390911690600090815b84811061315257856040518091602082016020835281518091526040830190602060408260051b8601019301916000905b8282106130c457505050500390f35b919360019193955060208091603f198982030185528751908151815260e060ff816131136131018787015161010089880152610100870190613c8b565b60408701518682036040880152613c8b565b94606081015160608601526080810151608086015260a081015160a086015260c081015160c086015201511691015296019201920185949391926130b5565b61315c818361434e565b90549060031b1c9283600052600760205260ff6040600020541615801561327d575b61327357836000526004602052604080600020600090878252602052205484600052600560205260408060002060009088825260205220546131c081836140e7565b908115613266576000878152600b60209081526040808320600f835281842060088452828520546011909452938290205491519a60ff9092169693916132058c613f06565b8b5261321090613f96565b60208b015261321e90613f96565b60408a01526060890152608088015260a087015260c086015260e0850152613245816140d8565b936132508289614279565b5261325b9087614279565b506001905b01613084565b5050509250600190613260565b9250600190613260565b5083600052600660205260ff60408060002060009088825260205220541661317e565b6020906040959495516132b281613f06565b60008152606083820152606060408201526000606082015260006080820152600060a0820152600060c0820152600060e08201528282890101520193929361306a565b613302818395949561434e565b90549060031b1c80600052600760205260ff6040600020541680613392575b613332575b50600101929192613038565b60008181526004602090815260408083206001600160a01b0389168085529083528184205494845260058352818420908452909152902054613373916140e7565b61337e575b85613326565b9361338a6001916140d8565b949050613378565b5060008181526006602090815260408083206001600160a01b038916845290915290205460ff1615613321565b346103b35760003660031901126103b3576020601854604051908152f35b346103b35760003660031901126103b3576010546133fa8161417b565b906134086040519283613f75565b808252601f196134178261417b565b0160005b81811061355c5750506010549060005b81811061349a57836040518091602082016020835281518091526040830190602060408260051b8601019301916000905b82821061346b57505050500390f35b9193600191939550602061348a8192603f198a82030186528851613dec565b960192019201859493919261345c565b600083821015611a8457601090527f1b6847dc741a1b0cd08d278845f9d819d87b734759afb55fe2de5cb82a9ae6728101546000818152600b602090815260408083206008835281842054600c845282852054600d855283862054600e865284872054600f875285882060119097529685902054945160019998909760ff909616966135369690959094929392916112fa91906112f38b613f06565b60c083015260e082015261354a8287614279565b526135558186614279565b500161342b565b60209061356761430f565b8282870101520161341b565b346103b35760203660031901126103b35761358c613c5f565b6135c0337f00000000000000000000000000000000000000000000000000000000000000006001600160a01b03161461429a565b6001601d546135d260ff8216156142d2565b60ff191617601d556001600160a01b03811690811561366a5760015490811561363b57816136287fc0819c13be868895eb93e40eaceb96de976442fa1d404e5c55f14bb65a8c489a93602093600060015561482c565b604051908152a2601d805460ff19169055005b60405162461bcd60e51b81526020600482015260076024820152664e6f206665657360c81b6044820152606490fd5b60405162461bcd60e51b815260206004820152600c60248201526b5a65726f206164647265737360a01b6044820152606490fd5b346103b35760403660031901126103b3576136b7613c75565b600435600052600560205260406000209060018060a01b03166000526020526020604060002054604051908152f35b346103b35760203660031901126103b3576004356002548082116138a0575b61370e826141fa565b90600092600060015b83811115613735576040516020808252819061059f90820188613d93565b80600052600760205260ff60406000205416613840578060005260036020528086604060002060ff600582015491600381015460048201549061377882826140e7565b6137828383614773565b93909260018601546002870154906137a76006890154986040519d8e61072881613eea565b60208d015260408c015260608b015260808a015260a089015260c08801528460e08801526137db848416610100890161424a565b600883901c84161515610120880152601083901c6001600160a01b031661014088015261016087015261018086015260b01c166101a084015285841161386857505060001982018281116107f657613837916107be8289614279565b5082811461384e575b613849906140d8565b613717565b94505061384961385e82856147d2565b9190959050613840565b11613878575b50613849906140d8565b8291965061082d6138899387614279565b5061384961389782856147d2565b9190959061386e565b905080613705565b346103b35760003660031901126103b3576020601b54604051908152f35b346103b35760203660031901126103b35760043580151580613934575b6138ec906140f4565b80600052600760205261390760ff6040600020541615614138565b60005260036020526040613928816000206004600382015491015490614773565b82519182526020820152f35b506002548111156138e3565b346103b35760403660031901126103b357613959613c75565b600435600052600660205260406000209060018060a01b0316600052602052602060ff604060002054166040519015158152f35b346103b35760003660031901126103b35760006101806040516139af81613ece565b8281528260208201528260408201528260608201528260808201528260a08201528260c08201528260e08201528261010082015282610120820152826101408201528261016082015201526000806000600192600254925b83851115613af5576101a0945060175491601854916014549160195490601b5492601c54946016549660155498601a549a6101808d60405190613a4982613ece565b81526020810192835260408101938452606081019485526080810195865260a0810196875260c0810197885260e081019889526101008101998a5261012081019a8b5261014081019b8c5261016081019c8d52019b8c526040519c8d525160208d01525160408c01525160608b01525160808a01525160a08901525160c08801525160e08701525161010086015251610120850152516101408401525161016083015251610180820152f35b84600093929352600760205260ff60406000205416613b9d5784600052600360205260406000209060ff6006613b3460038501546004860154906140e7565b9301541660038110156106435780613b6f575090613b51916140e7565b90600181018091116107f657613b6790946140d8565b939190613a07565b92959092909190600114613b88575b50613b67906140d8565b613b9690613b6792946140e7565b9290613b7e565b9093613b67906140d8565b346103b35760203660031901126103b3576001600160a01b03613bc9613c5f565b16600052601260205260406000209081548082526020820190819360005260206000209060005b818110613c495750505081613c06910382613f75565b6040519182916020830190602084525180915260408301919060005b818110613c30575050500390f35b8251845285945060209384019390920191600101613c22565b8254845260209093019260019283019201613bf0565b600435906001600160a01b03821682036103b357565b602435906001600160a01b03821682036103b357565b919082519283825260005b848110613cb7575050826000602080949584010152601f8019910116010190565b80602080928401015182828601015201613c96565b9060038210156106435752565b90815181526101a060ff81613cff60208601516101c060208701526101c0860190613c8b565b9460408101516040860152606081015160608601526080810151608086015260a081015160a086015260c081015160c086015260e081015160e0860152613d50610100820151610100870190613ccc565b610120810151151561012086015260018060a01b036101408201511661014086015261016081015161016086015261018081015161018086015201511691015290565b9080602083519182815201916020808360051b8301019401926000915b838310613dbf57505050505090565b9091929394602080613ddd600193601f198682030187528951613cd9565b97019301930191939290613db0565b908151815260e060ff81613e4e613e1460208701516101006020880152610100870190613c8b565b60408701516040870152606087015160608701526080870151608087015260a087015160a087015260c087015186820360c0880152613c8b565b9401511691015290565b9181601f840112156103b3578235916001600160401b0383116103b357602083818601950101116103b357565b6024359081151582036103b357565b90600182811c92168015613ec4575b6020831014613eae57565b634e487b7160e01b600052602260045260246000fd5b91607f1691613ea3565b6101a081019081106001600160401b0382111761114357604052565b6101c081019081106001600160401b0382111761114357604052565b61010081019081106001600160401b0382111761114357604052565b608081019081106001600160401b0382111761114357604052565b61014081019081106001600160401b0382111761114357604052565b61018081019081106001600160401b0382111761114357604052565b90601f801991011681019081106001600160401b0382111761114357604052565b9060405191826000825492613faa84613e94565b80845293600181169081156140185750600114613fd1575b50613fcf92500383613f75565b565b90506000929192526020600020906000915b818310613ffc575050906020613fcf9282010138613fc2565b6020919350806001915483858901015201910190918492613fe3565b905060209250613fcf94915060ff191682840152151560051b82010138613fc2565b908151815261016060ff8161406060208601516101806020870152610180860190613c8b565b94604081015115156040860152606081015160608601526080810151608086015260a081015160a086015260c081015160c086015260e0810151151560e086015261010081015115156101008601526101208101516101208601526140cf610140820151610140870190613ccc565b01511691015290565b60001981146107f65760010190565b919082018092116107f657565b156140fb57565b60405162461bcd60e51b815260206004820152601560248201527413585c9ad95d08191bd95cc81b9bdd08195e1a5cdd605a1b6044820152606490fd5b1561413f57565b60405162461bcd60e51b815260206004820152601460248201527313585c9ad95d081dd85cc818d85b98d95b1b195960621b6044820152606490fd5b6001600160401b0381116111435760051b60200190565b6040519061419f82613eea565b60006101a083828152606060208201528260408201528260608201528260808201528260a08201528260c08201528260e082015282610100820152826101208201528261014082015282610160820152826101808201520152565b906142048261417b565b6142116040519182613f75565b8281528092614222601f199161417b565b019060005b82811061423357505050565b60209061423e614192565b82828501015201614227565b60038210156106435752565b8051156142635760200190565b634e487b7160e01b600052603260045260246000fd5b80518210156142635760209160051b010190565b919082039182116107f657565b156142a157565b60405162461bcd60e51b81526020600482015260096024820152682737ba1037bbb732b960b91b6044820152606490fd5b156142d957565b60405162461bcd60e51b815260206004820152600e60248201526d1499595b9d1c985b9d0818d85b1b60921b6044820152606490fd5b6040519061431c82613f06565b600060e083828152606060208201528260408201528260608201528260808201528260a0820152606060c08201520152565b80548210156142635760005260206000200190600090565b818110614371575050565b60008155600101614366565b9190601f811161438c57505050565b613fcf926000526020600020906020601f840160051c830193106143b8575b601f0160051c0190614366565b90915081906143ab565b818102929181159184041417156107f657565b908060209392818452848401376000828201840152601f01601f1916010190565b8115614400570490565b634e487b7160e01b600052601260045260246000fd5b1561441d57565b60405162461bcd60e51b815260206004820152601460248201527313585c9ad95d081b9bdd0818d85b98d95b1b195960621b6044820152606490fd5b1561446057565b60405162461bcd60e51b815260206004820152600f60248201526e105b1c9958591e4818db185a5b5959608a1b6044820152606490fd5b916002549160648111614670575b82841015614631576144b7848461428d565b90808211614629575b506144ca816141fa565b9360005b8281106144da57505050565b806144f06001926144eb858961428d565b61428d565b80600052600760205260ff604060002054166145e45760ff81610d509260005260036020526040600020600381015460048201549161452f83836140e7565b6145398484614773565b9490938a84015460028501549061455f60058701549660068101549a6040519d8e613eea565b60208c015260408b015260608a0152608089015260a088015260c087015260e0860152614592848416610100870161424a565b838360081c161515610120860152868060a01b038360101c1661014086015261016085015261018084015260b01c166101a08201526145d18289614279565b526145dc8188614279565b505b016144ce565b806145ef838a614279565b51526002610100614600848b614279565b510152600052601160205260ff604060002054166101a0614621838a614279565b5101526145de565b9050386144c0565b50604051919250906000614646602083613f75565b81526000805b8181106146595750509190565b602090614664614192565b8282860101520161464c565b5060646144a5565b6001600160401b03811161114357601f01601f191660200190565b60005260036020526146bb604060002092620186a06146b4600054836143c2565b049061428d565b918115614705576146d08360038301546140e7565b915b156146fc57600401545b80156146f75782916105d2612197926146f4956143c2565b90565b505090565b600301546146dc565b6147138360048301546140e7565b916146d2565b6040519061472682613f59565b600061016083828152606060208201528260408201528260608201528260808201528260a08201528260c08201528260e08201528261010082015282610120820152826101408201520152565b90670de0b6b3a764000082018092116107f657670de0b6b3a764000081018091116107f6576147a290826140e7565b61271082029180830461271014901517156107f6576147c0916143f6565b90816127100361271081116107f65790565b9160009160e06147e185614256565b5101519360015b8281106147f457505050565b8560e06148018385614279565b51015110614812575b6001016147e8565b9350935060e06148228486614279565b510151938361480a565b6000918291829182916001600160a01b03165af13d156148ab573d61485081614678565b9061485e6040519283613f75565b8152600060203d92013e5b1561487057565b60405162461bcd60e51b8152602060048201526013602482015272115512081d1c985b9cd9995c8819985a5b1959606a1b6044820152606490fd5b614869565b9160009160c06148bf85614256565b5101519360015b8281106148d257505050565b8560c06148df8385614279565b510151106148f0575b6001016148c6565b9350935060c06149008486614279565b51015193836148e856fea264697066735822122077cf1d82c37d404da2208f2c04039ec28fbbd2834d765aff0e76277a2dd8b20664736f6c634300081c0033",
  "linkReferences": {},
  "deployedLinkReferences": {}
}